{
  "_format": "hh-sol-artifact-1",
  "contractName": "PlatformControlledToken",
  "sourceName": "contracts/PlatformControlledToken.sol",
  "abi": [
    {
      "inputs": [
        {
          "internalType": "address",
          "name": "_platformFeeCollector",
          "type": "address"
        }
      ],
      "stateMutability": "nonpayable",
      "type": "constructor"
    },
    {
      "inputs": [],
      "name": "BelowMinimumPurchase",
      "type": "error"
    },
    {
      "inputs": [
        {
          "internalType": "address",
          "name": "spender",
          "type": "address"
        },
        {
          "internalType": "uint256",
          "name": "allowance",
          "type": "uint256"
        },
        {
          "internalType": "uint256",
          "name": "needed",
          "type": "uint256"
        }
      ],
      "name": "ERC20InsufficientAllowance",
      "type": "error"
    },
    {
      "inputs": [
        {
          "internalType": "address",
          "name": "sender",
          "type": "address"
        },
        {
          "internalType": "uint256",
          "name": "balance",
          "type": "uint256"
        },
        {
          "internalType": "uint256",
          "name": "needed",
          "type": "uint256"
        }
      ],
      "name": "ERC20InsufficientBalance",
      "type": "error"
    },
    {
      "inputs": [
        {
          "internalType": "address",
          "name": "approver",
          "type": "address"
        }
      ],
      "name": "ERC20InvalidApprover",
      "type": "error"
    },
    {
      "inputs": [
        {
          "internalType": "address",
          "name": "receiver",
          "type": "address"
        }
      ],
      "name": "ERC20InvalidReceiver",
      "type": "error"
    },
    {
      "inputs": [
        {
          "internalType": "address",
          "name": "sender",
          "type": "address"
        }
      ],
      "name": "ERC20InvalidSender",
      "type": "error"
    },
    {
      "inputs": [
        {
          "internalType": "address",
          "name": "spender",
          "type": "address"
        }
      ],
      "name": "ERC20InvalidSpender",
      "type": "error"
    },
    {
      "inputs": [],
      "name": "InsufficientPayment",
      "type": "error"
    },
    {
      "inputs": [],
      "name": "InvalidPrice",
      "type": "error"
    },
    {
      "inputs": [],
      "name": "NoTokensAvailable",
      "type": "error"
    },
    {
      "inputs": [],
      "name": "NotAuthorizedRetailer",
      "type": "error"
    },
    {
      "inputs": [
        {
          "internalType": "address",
          "name": "owner",
          "type": "address"
        }
      ],
      "name": "OwnableInvalidOwner",
      "type": "error"
    },
    {
      "inputs": [
        {
          "internalType": "address",
          "name": "account",
          "type": "address"
        }
      ],
      "name": "OwnableUnauthorizedAccount",
      "type": "error"
    },
    {
      "inputs": [],
      "name": "ReentrancyGuardReentrantCall",
      "type": "error"
    },
    {
      "inputs": [],
      "name": "TransferFailed",
      "type": "error"
    },
    {
      "anonymous": false,
      "inputs": [
        {
          "indexed": true,
          "internalType": "address",
          "name": "owner",
          "type": "address"
        },
        {
          "indexed": true,
          "internalType": "address",
          "name": "spender",
          "type": "address"
        },
        {
          "indexed": false,
          "internalType": "uint256",
          "name": "value",
          "type": "uint256"
        }
      ],
      "name": "Approval",
      "type": "event"
    },
    {
      "anonymous": false,
      "inputs": [
        {
          "indexed": true,
          "internalType": "address",
          "name": "previousOwner",
          "type": "address"
        },
        {
          "indexed": true,
          "internalType": "address",
          "name": "newOwner",
          "type": "address"
        }
      ],
      "name": "OwnershipTransferred",
      "type": "event"
    },
    {
      "anonymous": false,
      "inputs": [
        {
          "indexed": true,
          "internalType": "address",
          "name": "from",
          "type": "address"
        },
        {
          "indexed": true,
          "internalType": "address",
          "name": "to",
          "type": "address"
        },
        {
          "indexed": false,
          "internalType": "uint256",
          "name": "feeAmount",
          "type": "uint256"
        },
        {
          "indexed": false,
          "internalType": "uint256",
          "name": "timestamp",
          "type": "uint256"
        }
      ],
      "name": "PlatformFeeCollected",
      "type": "event"
    },
    {
      "anonymous": false,
      "inputs": [
        {
          "indexed": false,
          "internalType": "uint256",
          "name": "oldPrice",
          "type": "uint256"
        },
        {
          "indexed": false,
          "internalType": "uint256",
          "name": "newPrice",
          "type": "uint256"
        },
        {
          "indexed": false,
          "internalType": "uint256",
          "name": "timestamp",
          "type": "uint256"
        }
      ],
      "name": "PriceUpdated",
      "type": "event"
    },
    {
      "anonymous": false,
      "inputs": [
        {
          "indexed": true,
          "internalType": "address",
          "name": "retailer",
          "type": "address"
        },
        {
          "indexed": false,
          "internalType": "uint256",
          "name": "timestamp",
          "type": "uint256"
        }
      ],
      "name": "RetailerAuthorized",
      "type": "event"
    },
    {
      "anonymous": false,
      "inputs": [
        {
          "indexed": true,
          "internalType": "address",
          "name": "retailer",
          "type": "address"
        },
        {
          "indexed": false,
          "internalType": "uint256",
          "name": "timestamp",
          "type": "uint256"
        }
      ],
      "name": "RetailerRevoked",
      "type": "event"
    },
    {
      "anonymous": false,
      "inputs": [
        {
          "indexed": true,
          "internalType": "address",
          "name": "buyer",
          "type": "address"
        },
        {
          "indexed": false,
          "internalType": "uint256",
          "name": "ethAmount",
          "type": "uint256"
        },
        {
          "indexed": false,
          "internalType": "uint256",
          "name": "tokensReceived",
          "type": "uint256"
        },
        {
          "indexed": false,
          "internalType": "uint256",
          "name": "timestamp",
          "type": "uint256"
        }
      ],
      "name": "TokensPurchasedFromPlatform",
      "type": "event"
    },
    {
      "anonymous": false,
      "inputs": [
        {
          "indexed": true,
          "internalType": "address",
          "name": "from",
          "type": "address"
        },
        {
          "indexed": true,
          "internalType": "address",
          "name": "to",
          "type": "address"
        },
        {
          "indexed": false,
          "internalType": "uint256",
          "name": "value",
          "type": "uint256"
        }
      ],
      "name": "Transfer",
      "type": "event"
    },
    {
      "inputs": [],
      "name": "MIN_PURCHASE_AMOUNT",
      "outputs": [
        {
          "internalType": "uint256",
          "name": "",
          "type": "uint256"
        }
      ],
      "stateMutability": "view",
      "type": "function"
    },
    {
      "inputs": [],
      "name": "PLATFORM_FEE_PERCENT",
      "outputs": [
        {
          "internalType": "uint256",
          "name": "",
          "type": "uint256"
        }
      ],
      "stateMutability": "view",
      "type": "function"
    },
    {
      "inputs": [],
      "name": "TOTAL_SUPPLY",
      "outputs": [
        {
          "internalType": "uint256",
          "name": "",
          "type": "uint256"
        }
      ],
      "stateMutability": "view",
      "type": "function"
    },
    {
      "inputs": [
        {
          "internalType": "address",
          "name": "owner",
          "type": "address"
        },
        {
          "internalType": "address",
          "name": "spender",
          "type": "address"
        }
      ],
      "name": "allowance",
      "outputs": [
        {
          "internalType": "uint256",
          "name": "",
          "type": "uint256"
        }
      ],
      "stateMutability": "view",
      "type": "function"
    },
    {
      "inputs": [
        {
          "internalType": "address",
          "name": "spender",
          "type": "address"
        },
        {
          "internalType": "uint256",
          "name": "value",
          "type": "uint256"
        }
      ],
      "name": "approve",
      "outputs": [
        {
          "internalType": "bool",
          "name": "",
          "type": "bool"
        }
      ],
      "stateMutability": "nonpayable",
      "type": "function"
    },
    {
      "inputs": [
        {
          "internalType": "address",
          "name": "_retailer",
          "type": "address"
        }
      ],
      "name": "authorizeRetailer",
      "outputs": [],
      "stateMutability": "nonpayable",
      "type": "function"
    },
    {
      "inputs": [
        {
          "internalType": "address",
          "name": "",
          "type": "address"
        }
      ],
      "name": "authorizedRetailers",
      "outputs": [
        {
          "internalType": "bool",
          "name": "",
          "type": "bool"
        }
      ],
      "stateMutability": "view",
      "type": "function"
    },
    {
      "inputs": [
        {
          "internalType": "address",
          "name": "account",
          "type": "address"
        }
      ],
      "name": "balanceOf",
      "outputs": [
        {
          "internalType": "uint256",
          "name": "",
          "type": "uint256"
        }
      ],
      "stateMutability": "view",
      "type": "function"
    },
    {
      "inputs": [
        {
          "internalType": "uint256",
          "name": "_tokenAmount",
          "type": "uint256"
        }
      ],
      "name": "calculateEthForTokens",
      "outputs": [
        {
          "internalType": "uint256",
          "name": "",
          "type": "uint256"
        }
      ],
      "stateMutability": "view",
      "type": "function"
    },
    {
      "inputs": [
        {
          "internalType": "uint256",
          "name": "_ethAmount",
          "type": "uint256"
        }
      ],
      "name": "calculateTokensForEth",
      "outputs": [
        {
          "internalType": "uint256",
          "name": "",
          "type": "uint256"
        }
      ],
      "stateMutability": "view",
      "type": "function"
    },
    {
      "inputs": [],
      "name": "decimals",
      "outputs": [
        {
          "internalType": "uint8",
          "name": "",
          "type": "uint8"
        }
      ],
      "stateMutability": "view",
      "type": "function"
    },
    {
      "inputs": [],
      "name": "emergencyWithdraw",
      "outputs": [],
      "stateMutability": "nonpayable",
      "type": "function"
    },
    {
      "inputs": [
        {
          "internalType": "address",
          "name": "",
          "type": "address"
        }
      ],
      "name": "exemptFromFees",
      "outputs": [
        {
          "internalType": "bool",
          "name": "",
          "type": "bool"
        }
      ],
      "stateMutability": "view",
      "type": "function"
    },
    {
      "inputs": [],
      "name": "getCurrentTokenPrice",
      "outputs": [
        {
          "internalType": "uint256",
          "name": "",
          "type": "uint256"
        }
      ],
      "stateMutability": "view",
      "type": "function"
    },
    {
      "inputs": [],
      "name": "getPlatformStats",
      "outputs": [
        {
          "internalType": "uint256",
          "name": "totalSupply_",
          "type": "uint256"
        },
        {
          "internalType": "uint256",
          "name": "platformBalance",
          "type": "uint256"
        },
        {
          "internalType": "uint256",
          "name": "totalRevenue",
          "type": "uint256"
        },
        {
          "internalType": "uint256",
          "name": "currentPrice",
          "type": "uint256"
        },
        {
          "internalType": "uint256",
          "name": "contractBalance",
          "type": "uint256"
        }
      ],
      "stateMutability": "view",
      "type": "function"
    },
    {
      "inputs": [
        {
          "internalType": "address",
          "name": "_retailer",
          "type": "address"
        }
      ],
      "name": "getRetailerPurchaseHistory",
      "outputs": [
        {
          "internalType": "uint256",
          "name": "",
          "type": "uint256"
        }
      ],
      "stateMutability": "view",
      "type": "function"
    },
    {
      "inputs": [
        {
          "internalType": "address",
          "name": "_retailer",
          "type": "address"
        }
      ],
      "name": "isAuthorizedRetailer",
      "outputs": [
        {
          "internalType": "bool",
          "name": "",
          "type": "bool"
        }
      ],
      "stateMutability": "view",
      "type": "function"
    },
    {
      "inputs": [],
      "name": "name",
      "outputs": [
        {
          "internalType": "string",
          "name": "",
          "type": "string"
        }
      ],
      "stateMutability": "view",
      "type": "function"
    },
    {
      "inputs": [],
      "name": "owner",
      "outputs": [
        {
          "internalType": "address",
          "name": "",
          "type": "address"
        }
      ],
      "stateMutability": "view",
      "type": "function"
    },
    {
      "inputs": [],
      "name": "platformFeeCollector",
      "outputs": [
        {
          "internalType": "address",
          "name": "",
          "type": "address"
        }
      ],
      "stateMutability": "view",
      "type": "function"
    },
    {
      "inputs": [],
      "name": "platformTokenPrice",
      "outputs": [
        {
          "internalType": "uint256",
          "name": "",
          "type": "uint256"
        }
      ],
      "stateMutability": "view",
      "type": "function"
    },
    {
      "inputs": [],
      "name": "purchaseTokensFromPlatform",
      "outputs": [],
      "stateMutability": "payable",
      "type": "function"
    },
    {
      "inputs": [],
      "name": "renounceOwnership",
      "outputs": [],
      "stateMutability": "nonpayable",
      "type": "function"
    },
    {
      "inputs": [
        {
          "internalType": "address",
          "name": "",
          "type": "address"
        }
      ],
      "name": "retailerPurchaseHistory",
      "outputs": [
        {
          "internalType": "uint256",
          "name": "",
          "type": "uint256"
        }
      ],
      "stateMutability": "view",
      "type": "function"
    },
    {
      "inputs": [
        {
          "internalType": "address",
          "name": "_retailer",
          "type": "address"
        }
      ],
      "name": "revokeRetailer",
      "outputs": [],
      "stateMutability": "nonpayable",
      "type": "function"
    },
    {
      "inputs": [
        {
          "internalType": "address",
          "name": "_address",
          "type": "address"
        },
        {
          "internalType": "bool",
          "name": "_exempt",
          "type": "bool"
        }
      ],
      "name": "setFeeExemption",
      "outputs": [],
      "stateMutability": "nonpayable",
      "type": "function"
    },
    {
      "inputs": [
        {
          "internalType": "uint256",
          "name": "_newPrice",
          "type": "uint256"
        }
      ],
      "name": "setPlatformTokenPrice",
      "outputs": [],
      "stateMutability": "nonpayable",
      "type": "function"
    },
    {
      "inputs": [],
      "name": "symbol",
      "outputs": [
        {
          "internalType": "string",
          "name": "",
          "type": "string"
        }
      ],
      "stateMutability": "view",
      "type": "function"
    },
    {
      "inputs": [],
      "name": "totalPlatformRevenue",
      "outputs": [
        {
          "internalType": "uint256",
          "name": "",
          "type": "uint256"
        }
      ],
      "stateMutability": "view",
      "type": "function"
    },
    {
      "inputs": [],
      "name": "totalSupply",
      "outputs": [
        {
          "internalType": "uint256",
          "name": "",
          "type": "uint256"
        }
      ],
      "stateMutability": "view",
      "type": "function"
    },
    {
      "inputs": [
        {
          "internalType": "address",
          "name": "to",
          "type": "address"
        },
        {
          "internalType": "uint256",
          "name": "value",
          "type": "uint256"
        }
      ],
      "name": "transfer",
      "outputs": [
        {
          "internalType": "bool",
          "name": "",
          "type": "bool"
        }
      ],
      "stateMutability": "nonpayable",
      "type": "function"
    },
    {
      "inputs": [
        {
          "internalType": "address",
          "name": "from",
          "type": "address"
        },
        {
          "internalType": "address",
          "name": "to",
          "type": "address"
        },
        {
          "internalType": "uint256",
          "name": "value",
          "type": "uint256"
        }
      ],
      "name": "transferFrom",
      "outputs": [
        {
          "internalType": "bool",
          "name": "",
          "type": "bool"
        }
      ],
      "stateMutability": "nonpayable",
      "type": "function"
    },
    {
      "inputs": [
        {
          "internalType": "address",
          "name": "newOwner",
          "type": "address"
        }
      ],
      "name": "transferOwnership",
      "outputs": [],
      "stateMutability": "nonpayable",
      "type": "function"
    },
    {
      "inputs": [
        {
          "internalType": "address",
          "name": "_newCollector",
          "type": "address"
        }
      ],
      "name": "updateFeeCollector",
      "outputs": [],
      "stateMutability": "nonpayable",
      "type": "function"
    },
    {
      "inputs": [
        {
          "internalType": "uint256",
          "name": "_amount",
          "type": "uint256"
        }
      ],
      "name": "withdrawPlatformRevenue",
      "outputs": [],
      "stateMutability": "nonpayable",
      "type": "function"
    },
    {
      "stateMutability": "payable",
      "type": "receive"
    }
  ],
  "bytecode": "0x6080604052670de0b6b3a76400006008553480156200001d57600080fd5b5060405162001afe38038062001afe83398101604081905262000040916200044c565b336040518060400160405280601081526020016f283937b334ba2434bb32902a37b5b2b760811b81525060405180604001604052806005815260200164504849564560d81b815250816003908162000099919062000522565b506004620000a8828262000522565b5050506001600160a01b038116620000db57604051631e4fbdf760e01b8152600060048201526024015b60405180910390fd5b620000e6816200015c565b506001600655600780546001600160a01b0319166001600160a01b0383161790556200011f336b033b2e3c9fd0803ce8000000620001ae565b336000908152600c60205260408082208054600160ff1991821681179092556001600160a01b039490941683529120805490921617905562000673565b600580546001600160a01b038381166001600160a01b0319831681179093556040519116919082907f8be0079c531659141344cd1fd0a4f28419497f9722a3daafe3b4186f6b6457e090600090a35050565b6001600160a01b038216620001da5760405163ec442f0560e01b815260006004820152602401620000d2565b620001e860008383620001ec565b5050565b6001600160a01b03831615806200020a57506001600160a01b038216155b806200022e57506001600160a01b0383166000908152600c602052604090205460ff165b806200025257506001600160a01b0382166000908152600c602052604090205460ff165b156200026a576200026583838362000319565b505050565b600060646200027b60028462000604565b62000287919062000624565b9050600062000297828462000647565b905081156200030557600754620002ba9086906001600160a01b03168462000319565b600754604080518481524260208201526001600160a01b03928316928816917f8949019e21e8ea8eb127050af601f37dd6e1f9d60083be74455d73017a1f423b910160405180910390a35b6200031285858362000319565b5050505050565b6001600160a01b038316620003485780600260008282546200033c91906200065d565b90915550620003bc9050565b6001600160a01b038316600090815260208190526040902054818110156200039d5760405163391434e360e21b81526001600160a01b03851660048201526024810182905260448101839052606401620000d2565b6001600160a01b03841660009081526020819052604090209082900390555b6001600160a01b038216620003da57600280548290039055620003f9565b6001600160a01b03821660009081526020819052604090208054820190555b816001600160a01b0316836001600160a01b03167fddf252ad1be2c89b69c2b068fc378daa952ba7f163c4a11628f55a4df523b3ef836040516200043f91815260200190565b60405180910390a3505050565b6000602082840312156200045f57600080fd5b81516001600160a01b03811681146200047757600080fd5b9392505050565b634e487b7160e01b600052604160045260246000fd5b600181811c90821680620004a957607f821691505b602082108103620004ca57634e487b7160e01b600052602260045260246000fd5b50919050565b601f8211156200026557600081815260208120601f850160051c81016020861015620004f95750805b601f850160051c820191505b818110156200051a5782815560010162000505565b505050505050565b81516001600160401b038111156200053e576200053e6200047e565b62000556816200054f845462000494565b84620004d0565b602080601f8311600181146200058e5760008415620005755750858301515b600019600386901b1c1916600185901b1785556200051a565b600085815260208120601f198616915b82811015620005bf578886015182559484019460019091019084016200059e565b5085821015620005de5787850151600019600388901b60f8161c191681555b5050505050600190811b01905550565b634e487b7160e01b600052601160045260246000fd5b80820281158282048414176200061e576200061e620005ee565b92915050565b6000826200064257634e487b7160e01b600052601260045260246000fd5b500490565b818103818111156200061e576200061e620005ee565b808201808211156200061e576200061e620005ee565b61147b80620006836000396000f3fe6080604052600436106102375760003560e01c8063715018a611610138578063a9059cbb116100b0578063dd62ed3e1161007f578063f213edb911610064578063f213edb9146106d5578063f2fde38b146106eb578063f751758b1461070b57600080fd5b8063dd62ed3e14610662578063eb136cba146106a857600080fd5b8063a9059cbb146105d7578063b9cbeacc146105f7578063d2c35ce81461062d578063db2e21bc1461064d57600080fd5b80638ca5ded111610107578063902d55a5116100ec578063902d55a5146105725780639369d8801461059257806395d89b41146105c257600080fd5b80638ca5ded1146105345780638da5cb5b1461055457600080fd5b8063715018a6146104a7578063751fd179146104bc578063782eb934146104dc578063853a65f9146104fc57600080fd5b80632fe7d7b5116101cb5780634cc76d181161019a578063560d52d41161017f578063560d52d41461042c5780635a90a49e1461044157806370a082311461047157600080fd5b80634cc76d181461040757806354545bfb1461040f57600080fd5b80632fe7d7b51461037c578063313ce5671461039c57806334bf75ae146103b85780634c48ccdd146103ce57600080fd5b8063136d888311610207578063136d8883146102ea57806318160ddd1461032757806320b17a0a1461033c57806323b872dd1461035c57600080fd5b806281e34b1461024357806306fd9bf61461026557806306fdde0314610298578063095ea7b3146102ba57600080fd5b3661023e57005b600080fd5b34801561024f57600080fd5b5061026361025e36600461121c565b610720565b005b34801561027157600080fd5b5061028561028036600461121c565b6107e4565b6040519081526020015b60405180910390f35b3480156102a457600080fd5b506102ad610818565b60405161028f9190611235565b3480156102c657600080fd5b506102da6102d536600461129f565b6108aa565b604051901515815260200161028f565b3480156102f657600080fd5b506102ff6108c2565b604080519586526020860194909452928401919091526060830152608082015260a00161028f565b34801561033357600080fd5b50600254610285565b34801561034857600080fd5b5061028561035736600461121c565b6108ff565b34801561036857600080fd5b506102da6103773660046112c9565b610919565b34801561038857600080fd5b5061026361039736600461121c565b61093d565b3480156103a857600080fd5b506040516012815260200161028f565b3480156103c457600080fd5b5061028560085481565b3480156103da57600080fd5b506102da6103e9366004611305565b6001600160a01b03166000908152600a602052604090205460ff1690565b6102636109b0565b34801561041b57600080fd5b50610285683635c9adc5dea0000081565b34801561043857600080fd5b50610285600281565b34801561044d57600080fd5b506102da61045c366004611305565b600c6020526000908152604090205460ff1681565b34801561047d57600080fd5b5061028561048c366004611305565b6001600160a01b031660009081526020819052604090205490565b3480156104b357600080fd5b50610263610b0b565b3480156104c857600080fd5b506102636104d7366004611327565b610b1d565b3480156104e857600080fd5b506102636104f7366004611305565b610b50565b34801561050857600080fd5b5060075461051c906001600160a01b031681565b6040516001600160a01b03909116815260200161028f565b34801561054057600080fd5b5061026361054f366004611305565b610bb5565b34801561056057600080fd5b506005546001600160a01b031661051c565b34801561057e57600080fd5b506102856b033b2e3c9fd0803ce800000081565b34801561059e57600080fd5b506102da6105ad366004611305565b600a6020526000908152604090205460ff1681565b3480156105ce57600080fd5b506102ad610c12565b3480156105e357600080fd5b506102da6105f236600461129f565b610c21565b34801561060357600080fd5b50610285610612366004611305565b6001600160a01b03166000908152600b602052604090205490565b34801561063957600080fd5b50610263610648366004611305565b610c2f565b34801561065957600080fd5b50610263610c7e565b34801561066e57600080fd5b5061028561067d366004611363565b6001600160a01b03918216600090815260016020908152604080832093909416825291909152205490565b3480156106b457600080fd5b506102856106c3366004611305565b600b6020526000908152604090205481565b3480156106e157600080fd5b5061028560095481565b3480156106f757600080fd5b50610263610706366004611305565b610d20565b34801561071757600080fd5b50600854610285565b610728610d60565b610730610d8d565b478111156107515760405163cd1c886760e01b815260040160405180910390fd5b60006107656005546001600160a01b031690565b6001600160a01b03168260405160006040518083038185875af1925050503d80600081146107af576040519150601f19603f3d011682016040523d82523d6000602084013e6107b4565b606091505b50509050806107d6576040516312171d8360e31b815260040160405180910390fd5b506107e16001600655565b50565b6008546000906107f6836103e86113ac565b61080890670de0b6b3a76400006113ac565b61081291906113c3565b92915050565b606060038054610827906113e5565b80601f0160208091040260200160405190810160405280929190818152602001828054610853906113e5565b80156108a05780601f10610875576101008083540402835291602001916108a0565b820191906000526020600020905b81548152906001019060200180831161088357829003601f168201915b5050505050905090565b6000336108b8818585610db7565b5060019392505050565b60008060008060006108d360025490565b6108e861048c6005546001600160a01b031690565b600954600854929891975095509093504792509050565b6000683635c9adc5dea000006008548361080891906113ac565b600033610927858285610dc9565b610932858585610e48565b506001949350505050565b610945610d60565b806000036109655760405162bfc92160e01b815260040160405180910390fd5b60088054908290556040805182815260208101849052428183015290517f15819dd2fd9f6418b142e798d08a18d0bf06ea368f4480b7b0d3f75bd966bc489181900360600190a15050565b6109b8610d8d565b346000036109d95760405163cd1c886760e01b815260040160405180910390fd5b6008546000906109eb346103e86113ac565b6109fd90670de0b6b3a76400006113ac565b610a0791906113c3565b9050683635c9adc5dea00000811015610a335760405163fcd2aaeb60e01b815260040160405180910390fd5b80610a4961048c6005546001600160a01b031690565b1015610a6857604051630626e30760e51b815260040160405180910390fd5b336000908152600b602052604081208054839290610a8790849061141f565b925050819055503460096000828254610aa0919061141f565b9091555050600554610abc906001600160a01b03163383610e48565b60408051348152602081018390524281830152905133917f08e3dd8a3048adfd75641c58657600ec3fb71df789236edfa139adfa9a3f55ac919081900360600190a250610b096001600655565b565b610b13610d60565b610b096000610ea7565b610b25610d60565b6001600160a01b03919091166000908152600c60205260409020805460ff1916911515919091179055565b610b58610d60565b6001600160a01b0381166000818152600a602052604090819020805460ff19169055517f230a8534b135b5f20c17c6722ea3a227fda6d1ba3442230091c9b989edd1461990610baa9042815260200190565b60405180910390a250565b610bbd610d60565b6001600160a01b0381166000818152600a602052604090819020805460ff19166001179055517f39999346e57859f1da9f0ee246e2c8474e94d386a19ebb83c75ffde0d5b7f01d90610baa9042815260200190565b606060048054610827906113e5565b6000336108b8818585610e48565b610c37610d60565b600780546001600160a01b0390921673ffffffffffffffffffffffffffffffffffffffff19909216821790556000908152600c60205260409020805460ff19166001179055565b610c86610d60565b610c8e610d8d565b476000610ca36005546001600160a01b031690565b6001600160a01b03168260405160006040518083038185875af1925050503d8060008114610ced576040519150601f19603f3d011682016040523d82523d6000602084013e610cf2565b606091505b5050905080610d14576040516312171d8360e31b815260040160405180910390fd5b5050610b096001600655565b610d28610d60565b6001600160a01b038116610d5757604051631e4fbdf760e01b8152600060048201526024015b60405180910390fd5b6107e181610ea7565b6005546001600160a01b03163314610b095760405163118cdaa760e01b8152336004820152602401610d4e565b600260065403610db057604051633ee5aeb560e01b815260040160405180910390fd5b6002600655565b610dc48383836001610f06565b505050565b6001600160a01b03838116600090815260016020908152604080832093861683529290522054600019811015610e425781811015610e3357604051637dc7a0d960e11b81526001600160a01b03841660048201526024810182905260448101839052606401610d4e565b610e4284848484036000610f06565b50505050565b6001600160a01b038316610e7257604051634b637e8f60e11b815260006004820152602401610d4e565b6001600160a01b038216610e9c5760405163ec442f0560e01b815260006004820152602401610d4e565b610dc4838383610fdb565b600580546001600160a01b0383811673ffffffffffffffffffffffffffffffffffffffff19831681179093556040519116919082907f8be0079c531659141344cd1fd0a4f28419497f9722a3daafe3b4186f6b6457e090600090a35050565b6001600160a01b038416610f305760405163e602df0560e01b815260006004820152602401610d4e565b6001600160a01b038316610f5a57604051634a1406b160e11b815260006004820152602401610d4e565b6001600160a01b0380851660009081526001602090815260408083209387168352929052208290558015610e4257826001600160a01b0316846001600160a01b03167f8c5be1e5ebec7d5bd14f71427d1e84f3dd0314c0f7b2291e5b200ac8c7c3b92584604051610fcd91815260200190565b60405180910390a350505050565b6001600160a01b0383161580610ff857506001600160a01b038216155b8061101b57506001600160a01b0383166000908152600c602052604090205460ff165b8061103e57506001600160a01b0382166000908152600c602052604090205460ff165b1561104e57610dc48383836110f2565b6000606461105d6002846113ac565b61106791906113c3565b905060006110758284611432565b905081156110e0576007546110959086906001600160a01b0316846110f2565b600754604080518481524260208201526001600160a01b03928316928816917f8949019e21e8ea8eb127050af601f37dd6e1f9d60083be74455d73017a1f423b910160405180910390a35b6110eb8585836110f2565b5050505050565b6001600160a01b03831661111d578060026000828254611112919061141f565b9091555061118f9050565b6001600160a01b038316600090815260208190526040902054818110156111705760405163391434e360e21b81526001600160a01b03851660048201526024810182905260448101839052606401610d4e565b6001600160a01b03841660009081526020819052604090209082900390555b6001600160a01b0382166111ab576002805482900390556111ca565b6001600160a01b03821660009081526020819052604090208054820190555b816001600160a01b0316836001600160a01b03167fddf252ad1be2c89b69c2b068fc378daa952ba7f163c4a11628f55a4df523b3ef8360405161120f91815260200190565b60405180910390a3505050565b60006020828403121561122e57600080fd5b5035919050565b600060208083528351808285015260005b8181101561126257858101830151858201604001528201611246565b506000604082860101526040601f19601f8301168501019250505092915050565b80356001600160a01b038116811461129a57600080fd5b919050565b600080604083850312156112b257600080fd5b6112bb83611283565b946020939093013593505050565b6000806000606084860312156112de57600080fd5b6112e784611283565b92506112f560208501611283565b9150604084013590509250925092565b60006020828403121561131757600080fd5b61132082611283565b9392505050565b6000806040838503121561133a57600080fd5b61134383611283565b91506020830135801515811461135857600080fd5b809150509250929050565b6000806040838503121561137657600080fd5b61137f83611283565b915061138d60208401611283565b90509250929050565b634e487b7160e01b600052601160045260246000fd5b808202811582820484141761081257610812611396565b6000826113e057634e487b7160e01b600052601260045260246000fd5b500490565b600181811c908216806113f957607f821691505b60208210810361141957634e487b7160e01b600052602260045260246000fd5b50919050565b8082018082111561081257610812611396565b818103818111156108125761081261139656fea264697066735822122083fdad07016150453c7f1ecc0303dfb16126553e02b455d3128aa55b9c37407f64736f6c63430008140033",
  "linkReferences": {},
  "deployedLinkReferences": {}
}