{
  "_format": "hh-sol-artifact-1",
  "contractName": "ProfitHiveToken",
  "sourceName": "contracts/ProfitHiveToken.sol",
  "abi": [
    {
      "inputs": [
        {
          "internalType": "address",
          "name": "initialOwner",
          "type": "address"
        }
      ],
      "stateMutability": "nonpayable",
      "type": "constructor"
    },
    {
      "inputs": [
        {
          "internalType": "address",
          "name": "spender",
          "type": "address"
        },
        {
          "internalType": "uint256",
          "name": "allowance",
          "type": "uint256"
        },
        {
          "internalType": "uint256",
          "name": "needed",
          "type": "uint256"
        }
      ],
      "name": "ERC20InsufficientAllowance",
      "type": "error"
    },
    {
      "inputs": [
        {
          "internalType": "address",
          "name": "sender",
          "type": "address"
        },
        {
          "internalType": "uint256",
          "name": "balance",
          "type": "uint256"
        },
        {
          "internalType": "uint256",
          "name": "needed",
          "type": "uint256"
        }
      ],
      "name": "ERC20InsufficientBalance",
      "type": "error"
    },
    {
      "inputs": [
        {
          "internalType": "address",
          "name": "approver",
          "type": "address"
        }
      ],
      "name": "ERC20InvalidApprover",
      "type": "error"
    },
    {
      "inputs": [
        {
          "internalType": "address",
          "name": "receiver",
          "type": "address"
        }
      ],
      "name": "ERC20InvalidReceiver",
      "type": "error"
    },
    {
      "inputs": [
        {
          "internalType": "address",
          "name": "sender",
          "type": "address"
        }
      ],
      "name": "ERC20InvalidSender",
      "type": "error"
    },
    {
      "inputs": [
        {
          "internalType": "address",
          "name": "spender",
          "type": "address"
        }
      ],
      "name": "ERC20InvalidSpender",
      "type": "error"
    },
    {
      "inputs": [],
      "name": "EnforcedPause",
      "type": "error"
    },
    {
      "inputs": [],
      "name": "ExpectedPause",
      "type": "error"
    },
    {
      "inputs": [
        {
          "internalType": "address",
          "name": "owner",
          "type": "address"
        }
      ],
      "name": "OwnableInvalidOwner",
      "type": "error"
    },
    {
      "inputs": [
        {
          "internalType": "address",
          "name": "account",
          "type": "address"
        }
      ],
      "name": "OwnableUnauthorizedAccount",
      "type": "error"
    },
    {
      "anonymous": false,
      "inputs": [
        {
          "indexed": true,
          "internalType": "address",
          "name": "owner",
          "type": "address"
        },
        {
          "indexed": true,
          "internalType": "address",
          "name": "spender",
          "type": "address"
        },
        {
          "indexed": false,
          "internalType": "uint256",
          "name": "value",
          "type": "uint256"
        }
      ],
      "name": "Approval",
      "type": "event"
    },
    {
      "anonymous": false,
      "inputs": [
        {
          "indexed": true,
          "internalType": "address",
          "name": "minter",
          "type": "address"
        }
      ],
      "name": "MinterAdded",
      "type": "event"
    },
    {
      "anonymous": false,
      "inputs": [
        {
          "indexed": true,
          "internalType": "address",
          "name": "minter",
          "type": "address"
        }
      ],
      "name": "MinterRemoved",
      "type": "event"
    },
    {
      "anonymous": false,
      "inputs": [
        {
          "indexed": true,
          "internalType": "address",
          "name": "previousOwner",
          "type": "address"
        },
        {
          "indexed": true,
          "internalType": "address",
          "name": "newOwner",
          "type": "address"
        }
      ],
      "name": "OwnershipTransferred",
      "type": "event"
    },
    {
      "anonymous": false,
      "inputs": [
        {
          "indexed": false,
          "internalType": "address",
          "name": "account",
          "type": "address"
        }
      ],
      "name": "Paused",
      "type": "event"
    },
    {
      "anonymous": false,
      "inputs": [
        {
          "indexed": true,
          "internalType": "address",
          "name": "recipient",
          "type": "address"
        },
        {
          "indexed": false,
          "internalType": "uint256",
          "name": "amount",
          "type": "uint256"
        },
        {
          "indexed": false,
          "internalType": "string",
          "name": "reason",
          "type": "string"
        }
      ],
      "name": "RewardDistributed",
      "type": "event"
    },
    {
      "anonymous": false,
      "inputs": [
        {
          "indexed": true,
          "internalType": "address",
          "name": "rewarder",
          "type": "address"
        }
      ],
      "name": "RewarderAdded",
      "type": "event"
    },
    {
      "anonymous": false,
      "inputs": [
        {
          "indexed": true,
          "internalType": "address",
          "name": "rewarder",
          "type": "address"
        }
      ],
      "name": "RewarderRemoved",
      "type": "event"
    },
    {
      "anonymous": false,
      "inputs": [
        {
          "indexed": true,
          "internalType": "address",
          "name": "from",
          "type": "address"
        },
        {
          "indexed": true,
          "internalType": "address",
          "name": "to",
          "type": "address"
        },
        {
          "indexed": false,
          "internalType": "uint256",
          "name": "value",
          "type": "uint256"
        }
      ],
      "name": "Transfer",
      "type": "event"
    },
    {
      "anonymous": false,
      "inputs": [
        {
          "indexed": false,
          "internalType": "address",
          "name": "account",
          "type": "address"
        }
      ],
      "name": "Unpaused",
      "type": "event"
    },
    {
      "inputs": [],
      "name": "INITIAL_SUPPLY",
      "outputs": [
        {
          "internalType": "uint256",
          "name": "",
          "type": "uint256"
        }
      ],
      "stateMutability": "view",
      "type": "function"
    },
    {
      "inputs": [],
      "name": "MAX_SUPPLY",
      "outputs": [
        {
          "internalType": "uint256",
          "name": "",
          "type": "uint256"
        }
      ],
      "stateMutability": "view",
      "type": "function"
    },
    {
      "inputs": [
        {
          "internalType": "address",
          "name": "minter",
          "type": "address"
        }
      ],
      "name": "addMinter",
      "outputs": [],
      "stateMutability": "nonpayable",
      "type": "function"
    },
    {
      "inputs": [
        {
          "internalType": "address",
          "name": "rewarder",
          "type": "address"
        }
      ],
      "name": "addRewarder",
      "outputs": [],
      "stateMutability": "nonpayable",
      "type": "function"
    },
    {
      "inputs": [
        {
          "internalType": "address",
          "name": "owner",
          "type": "address"
        },
        {
          "internalType": "address",
          "name": "spender",
          "type": "address"
        }
      ],
      "name": "allowance",
      "outputs": [
        {
          "internalType": "uint256",
          "name": "",
          "type": "uint256"
        }
      ],
      "stateMutability": "view",
      "type": "function"
    },
    {
      "inputs": [
        {
          "internalType": "address",
          "name": "spender",
          "type": "address"
        },
        {
          "internalType": "uint256",
          "name": "value",
          "type": "uint256"
        }
      ],
      "name": "approve",
      "outputs": [
        {
          "internalType": "bool",
          "name": "",
          "type": "bool"
        }
      ],
      "stateMutability": "nonpayable",
      "type": "function"
    },
    {
      "inputs": [
        {
          "internalType": "address",
          "name": "account",
          "type": "address"
        }
      ],
      "name": "balanceOf",
      "outputs": [
        {
          "internalType": "uint256",
          "name": "",
          "type": "uint256"
        }
      ],
      "stateMutability": "view",
      "type": "function"
    },
    {
      "inputs": [
        {
          "internalType": "uint256",
          "name": "value",
          "type": "uint256"
        }
      ],
      "name": "burn",
      "outputs": [],
      "stateMutability": "nonpayable",
      "type": "function"
    },
    {
      "inputs": [
        {
          "internalType": "address",
          "name": "account",
          "type": "address"
        },
        {
          "internalType": "uint256",
          "name": "value",
          "type": "uint256"
        }
      ],
      "name": "burnFrom",
      "outputs": [],
      "stateMutability": "nonpayable",
      "type": "function"
    },
    {
      "inputs": [],
      "name": "decimals",
      "outputs": [
        {
          "internalType": "uint8",
          "name": "",
          "type": "uint8"
        }
      ],
      "stateMutability": "view",
      "type": "function"
    },
    {
      "inputs": [
        {
          "internalType": "address",
          "name": "recipient",
          "type": "address"
        },
        {
          "internalType": "uint256",
          "name": "amount",
          "type": "uint256"
        },
        {
          "internalType": "string",
          "name": "reason",
          "type": "string"
        }
      ],
      "name": "distributeReward",
      "outputs": [],
      "stateMutability": "nonpayable",
      "type": "function"
    },
    {
      "inputs": [
        {
          "internalType": "address",
          "name": "to",
          "type": "address"
        },
        {
          "internalType": "uint256",
          "name": "amount",
          "type": "uint256"
        }
      ],
      "name": "mint",
      "outputs": [],
      "stateMutability": "nonpayable",
      "type": "function"
    },
    {
      "inputs": [
        {
          "internalType": "address",
          "name": "",
          "type": "address"
        }
      ],
      "name": "minters",
      "outputs": [
        {
          "internalType": "bool",
          "name": "",
          "type": "bool"
        }
      ],
      "stateMutability": "view",
      "type": "function"
    },
    {
      "inputs": [],
      "name": "name",
      "outputs": [
        {
          "internalType": "string",
          "name": "",
          "type": "string"
        }
      ],
      "stateMutability": "view",
      "type": "function"
    },
    {
      "inputs": [],
      "name": "owner",
      "outputs": [
        {
          "internalType": "address",
          "name": "",
          "type": "address"
        }
      ],
      "stateMutability": "view",
      "type": "function"
    },
    {
      "inputs": [],
      "name": "pause",
      "outputs": [],
      "stateMutability": "nonpayable",
      "type": "function"
    },
    {
      "inputs": [],
      "name": "paused",
      "outputs": [
        {
          "internalType": "bool",
          "name": "",
          "type": "bool"
        }
      ],
      "stateMutability": "view",
      "type": "function"
    },
    {
      "inputs": [
        {
          "internalType": "address",
          "name": "minter",
          "type": "address"
        }
      ],
      "name": "removeMinter",
      "outputs": [],
      "stateMutability": "nonpayable",
      "type": "function"
    },
    {
      "inputs": [
        {
          "internalType": "address",
          "name": "rewarder",
          "type": "address"
        }
      ],
      "name": "removeRewarder",
      "outputs": [],
      "stateMutability": "nonpayable",
      "type": "function"
    },
    {
      "inputs": [],
      "name": "renounceOwnership",
      "outputs": [],
      "stateMutability": "nonpayable",
      "type": "function"
    },
    {
      "inputs": [
        {
          "internalType": "address",
          "name": "",
          "type": "address"
        }
      ],
      "name": "rewarders",
      "outputs": [
        {
          "internalType": "bool",
          "name": "",
          "type": "bool"
        }
      ],
      "stateMutability": "view",
      "type": "function"
    },
    {
      "inputs": [],
      "name": "symbol",
      "outputs": [
        {
          "internalType": "string",
          "name": "",
          "type": "string"
        }
      ],
      "stateMutability": "view",
      "type": "function"
    },
    {
      "inputs": [],
      "name": "totalSupply",
      "outputs": [
        {
          "internalType": "uint256",
          "name": "",
          "type": "uint256"
        }
      ],
      "stateMutability": "view",
      "type": "function"
    },
    {
      "inputs": [
        {
          "internalType": "address",
          "name": "to",
          "type": "address"
        },
        {
          "internalType": "uint256",
          "name": "value",
          "type": "uint256"
        }
      ],
      "name": "transfer",
      "outputs": [
        {
          "internalType": "bool",
          "name": "",
          "type": "bool"
        }
      ],
      "stateMutability": "nonpayable",
      "type": "function"
    },
    {
      "inputs": [
        {
          "internalType": "address",
          "name": "from",
          "type": "address"
        },
        {
          "internalType": "address",
          "name": "to",
          "type": "address"
        },
        {
          "internalType": "uint256",
          "name": "value",
          "type": "uint256"
        }
      ],
      "name": "transferFrom",
      "outputs": [
        {
          "internalType": "bool",
          "name": "",
          "type": "bool"
        }
      ],
      "stateMutability": "nonpayable",
      "type": "function"
    },
    {
      "inputs": [
        {
          "internalType": "address",
          "name": "newOwner",
          "type": "address"
        }
      ],
      "name": "transferOwnership",
      "outputs": [],
      "stateMutability": "nonpayable",
      "type": "function"
    },
    {
      "inputs": [],
      "name": "unpause",
      "outputs": [],
      "stateMutability": "nonpayable",
      "type": "function"
    }
  ],
  "bytecode": "0x60806040523480156200001157600080fd5b50604051620015703803806200157083398101604081905262000034916200030d565b806040518060400160405280601081526020016f283937b334ba2434bb32902a37b5b2b760811b81525060405180604001604052806005815260200164504849564560d81b81525081600390816200008d9190620003e3565b5060046200009c8282620003e3565b5050506001600160a01b038116620000cf57604051631e4fbdf760e01b8152600060048201526024015b60405180910390fd5b620000da81620000f9565b50620000f2816a52b7d2dcc80cd2e40000006200014b565b50620004d7565b600580546001600160a01b038381166001600160a01b0319831681179093556040519116919082907f8be0079c531659141344cd1fd0a4f28419497f9722a3daafe3b4186f6b6457e090600090a35050565b6001600160a01b038216620001775760405163ec442f0560e01b815260006004820152602401620000c6565b620001856000838362000189565b5050565b62000193620001a5565b620001a0838383620001da565b505050565b620001b9600554600160a01b900460ff1690565b15620001d85760405163d93c066560e01b815260040160405180910390fd5b565b6001600160a01b03831662000209578060026000828254620001fd9190620004af565b909155506200027d9050565b6001600160a01b038316600090815260208190526040902054818110156200025e5760405163391434e360e21b81526001600160a01b03851660048201526024810182905260448101839052606401620000c6565b6001600160a01b03841660009081526020819052604090209082900390555b6001600160a01b0382166200029b57600280548290039055620002ba565b6001600160a01b03821660009081526020819052604090208054820190555b816001600160a01b0316836001600160a01b03167fddf252ad1be2c89b69c2b068fc378daa952ba7f163c4a11628f55a4df523b3ef836040516200030091815260200190565b60405180910390a3505050565b6000602082840312156200032057600080fd5b81516001600160a01b03811681146200033857600080fd5b9392505050565b634e487b7160e01b600052604160045260246000fd5b600181811c908216806200036a57607f821691505b6020821081036200038b57634e487b7160e01b600052602260045260246000fd5b50919050565b601f821115620001a057600081815260208120601f850160051c81016020861015620003ba5750805b601f850160051c820191505b81811015620003db57828155600101620003c6565b505050505050565b81516001600160401b03811115620003ff57620003ff6200033f565b620004178162000410845462000355565b8462000391565b602080601f8311600181146200044f5760008415620004365750858301515b600019600386901b1c1916600185901b178555620003db565b600085815260208120601f198616915b8281101562000480578886015182559484019460019091019084016200045f565b50858210156200049f5787850151600019600388901b60f8161c191681555b5050505050600190811b01905550565b80820180821115620004d157634e487b7160e01b600052601160045260246000fd5b92915050565b61108980620004e76000396000f3fe608060405234801561001057600080fd5b50600436106101a95760003560e01c806356d3590b116100f957806395d89b4111610097578063cb908b9d11610071578063cb908b9d1461037b578063dd62ed3e1461038e578063f2fde38b146103c7578063f46eccc4146103da57600080fd5b806395d89b411461034d578063983b2d5614610355578063a9059cbb1461036857600080fd5b8063715018a6116100d3578063715018a61461030f57806379cc6790146103175780638456cb591461032a5780638da5cb5b1461033257600080fd5b806356d3590b146102c15780635c975abb146102d457806370a08231146102e657600080fd5b80632ff2e9dc1161016657806332cb6b0c1161014057806332cb6b0c146102805780633f4ba83a1461029357806340c10f191461029b57806342966c68146102ae57600080fd5b80632ff2e9dc1461024c5780633092afd51461025e578063313ce5671461027157600080fd5b806306fdde03146101ae57806307e702cb146101cc578063095ea7b3146101ff57806318160ddd1461021257806323b872dd146102245780632a7ea9d214610237575b600080fd5b6101b66103fd565b6040516101c39190610df3565b60405180910390f35b6101ef6101da366004610e29565b60076020526000908152604090205460ff1681565b60405190151581526020016101c3565b6101ef61020d366004610e44565b61048f565b6002545b6040519081526020016101c3565b6101ef610232366004610e6e565b6104a9565b61024a610245366004610ec0565b6104cd565b005b6102166a52b7d2dcc80cd2e400000081565b61024a61026c366004610e29565b6105fc565b604051601281526020016101c3565b6102166b033b2e3c9fd0803ce800000081565b61024a61064d565b61024a6102a9366004610e44565b61065f565b61024a6102bc366004610f8b565b61073e565b61024a6102cf366004610e29565b61074b565b600554600160a01b900460ff166101ef565b6102166102f4366004610e29565b6001600160a01b031660009081526020819052604090205490565b61024a61079f565b61024a610325366004610e44565b6107b1565b61024a6107c6565b6005546040516001600160a01b0390911681526020016101c3565b6101b66107d6565b61024a610363366004610e29565b6107e5565b6101ef610376366004610e44565b610839565b61024a610389366004610e29565b610847565b61021661039c366004610fa4565b6001600160a01b03918216600090815260016020908152604080832093909416825291909152205490565b61024a6103d5366004610e29565b610898565b6101ef6103e8366004610e29565b60066020526000908152604090205460ff1681565b60606003805461040c90610fd7565b80601f016020809104026020016040519081016040528092919081815260200182805461043890610fd7565b80156104855780601f1061045a57610100808354040283529160200191610485565b820191906000526020600020905b81548152906001019060200180831161046857829003601f168201915b5050505050905090565b60003361049d8185856108d3565b60019150505b92915050565b6000336104b78582856108e5565b6104c2858585610964565b506001949350505050565b3360009081526007602052604090205460ff16806104f557506005546001600160a01b031633145b6105465760405162461bcd60e51b815260206004820152601860248201527f4e6f7420617574686f72697a656420746f20726577617264000000000000000060448201526064015b60405180910390fd5b6b033b2e3c9fd0803ce80000008261055d60025490565b6105679190611011565b11156105aa5760405162461bcd60e51b815260206004820152601260248201527145786365656473206d617820737570706c7960701b604482015260640161053d565b6105b483836109c3565b826001600160a01b03167f49649141d16971a88c3cfdd73fec34babb1cf163cf8b804c8f537a023c6ce50683836040516105ef929190611032565b60405180910390a2505050565b6106046109f9565b6001600160a01b038116600081815260066020526040808220805460ff19169055517fe94479a9f7e1952cc78f2d6baab678adc1b772d936c6583def489e524cb666929190a250565b6106556109f9565b61065d610a26565b565b3360009081526006602052604090205460ff168061068757506005546001600160a01b031633145b6106cc5760405162461bcd60e51b8152602060048201526016602482015275139bdd08185d5d1a1bdc9a5e9959081d1bc81b5a5b9d60521b604482015260640161053d565b6b033b2e3c9fd0803ce8000000816106e360025490565b6106ed9190611011565b11156107305760405162461bcd60e51b815260206004820152601260248201527145786365656473206d617820737570706c7960701b604482015260640161053d565b61073a82826109c3565b5050565b6107483382610a7b565b50565b6107536109f9565b6001600160a01b038116600081815260076020526040808220805460ff19166001179055517f9dfd431959d2d3358e3eb909555ad574123ea5881ff0e05a80f66d4984710c1b9190a250565b6107a76109f9565b61065d6000610ab1565b6107bc8233836108e5565b61073a8282610a7b565b6107ce6109f9565b61065d610b03565b60606004805461040c90610fd7565b6107ed6109f9565b6001600160a01b038116600081815260066020526040808220805460ff19166001179055517f6ae172837ea30b801fbfcdd4108aa1d5bf8ff775444fd70256b44e6bf3dfc3f69190a250565b60003361049d818585610964565b61084f6109f9565b6001600160a01b038116600081815260076020526040808220805460ff19169055517fce699c579f0b70ea4ccd6a4b38be26726a2c248b89c7102ccbc5d0f3060ef6d09190a250565b6108a06109f9565b6001600160a01b0381166108ca57604051631e4fbdf760e01b81526000600482015260240161053d565b61074881610ab1565b6108e08383836001610b46565b505050565b6001600160a01b0383811660009081526001602090815260408083209386168352929052205460001981101561095e578181101561094f57604051637dc7a0d960e11b81526001600160a01b0384166004820152602481018290526044810183905260640161053d565b61095e84848484036000610b46565b50505050565b6001600160a01b03831661098e57604051634b637e8f60e11b81526000600482015260240161053d565b6001600160a01b0382166109b85760405163ec442f0560e01b81526000600482015260240161053d565b6108e0838383610c1b565b6001600160a01b0382166109ed5760405163ec442f0560e01b81526000600482015260240161053d565b61073a60008383610c1b565b6005546001600160a01b0316331461065d5760405163118cdaa760e01b815233600482015260240161053d565b610a2e610c2e565b6005805460ff60a01b191690557f5db9ee0a495bf2e6ff9c91a7834c1ba4fdd244a5e8aa4e537bd38aeae4b073aa335b6040516001600160a01b03909116815260200160405180910390a1565b6001600160a01b038216610aa557604051634b637e8f60e11b81526000600482015260240161053d565b61073a82600083610c1b565b600580546001600160a01b038381166001600160a01b0319831681179093556040519116919082907f8be0079c531659141344cd1fd0a4f28419497f9722a3daafe3b4186f6b6457e090600090a35050565b610b0b610c58565b6005805460ff60a01b1916600160a01b1790557f62e78cea01bee320cd4e420270b5ea74000d11b0c9f74754ebdbfc544b05a258610a5e3390565b6001600160a01b038416610b705760405163e602df0560e01b81526000600482015260240161053d565b6001600160a01b038316610b9a57604051634a1406b160e11b81526000600482015260240161053d565b6001600160a01b038085166000908152600160209081526040808320938716835292905220829055801561095e57826001600160a01b0316846001600160a01b03167f8c5be1e5ebec7d5bd14f71427d1e84f3dd0314c0f7b2291e5b200ac8c7c3b92584604051610c0d91815260200190565b60405180910390a350505050565b610c23610c58565b6108e0838383610c83565b600554600160a01b900460ff1661065d57604051638dfc202b60e01b815260040160405180910390fd5b600554600160a01b900460ff161561065d5760405163d93c066560e01b815260040160405180910390fd5b6001600160a01b038316610cae578060026000828254610ca39190611011565b90915550610d209050565b6001600160a01b03831660009081526020819052604090205481811015610d015760405163391434e360e21b81526001600160a01b0385166004820152602481018290526044810183905260640161053d565b6001600160a01b03841660009081526020819052604090209082900390555b6001600160a01b038216610d3c57600280548290039055610d5b565b6001600160a01b03821660009081526020819052604090208054820190555b816001600160a01b0316836001600160a01b03167fddf252ad1be2c89b69c2b068fc378daa952ba7f163c4a11628f55a4df523b3ef83604051610da091815260200190565b60405180910390a3505050565b6000815180845260005b81811015610dd357602081850181015186830182015201610db7565b506000602082860101526020601f19601f83011685010191505092915050565b602081526000610e066020830184610dad565b9392505050565b80356001600160a01b0381168114610e2457600080fd5b919050565b600060208284031215610e3b57600080fd5b610e0682610e0d565b60008060408385031215610e5757600080fd5b610e6083610e0d565b946020939093013593505050565b600080600060608486031215610e8357600080fd5b610e8c84610e0d565b9250610e9a60208501610e0d565b9150604084013590509250925092565b634e487b7160e01b600052604160045260246000fd5b600080600060608486031215610ed557600080fd5b610ede84610e0d565b925060208401359150604084013567ffffffffffffffff80821115610f0257600080fd5b818601915086601f830112610f1657600080fd5b813581811115610f2857610f28610eaa565b604051601f8201601f19908116603f01168101908382118183101715610f5057610f50610eaa565b81604052828152896020848701011115610f6957600080fd5b8260208601602083013760006020848301015280955050505050509250925092565b600060208284031215610f9d57600080fd5b5035919050565b60008060408385031215610fb757600080fd5b610fc083610e0d565b9150610fce60208401610e0d565b90509250929050565b600181811c90821680610feb57607f821691505b60208210810361100b57634e487b7160e01b600052602260045260246000fd5b50919050565b808201808211156104a357634e487b7160e01b600052601160045260246000fd5b82815260406020820152600061104b6040830184610dad565b94935050505056fea26469706673582212209bf60ec7ae0a23e6aba255bfbbbd289ad3b465d791592cd1316baf7e502c097b64736f6c63430008140033",
  "linkReferences": {},
  "deployedLinkReferences": {}
}