{
  "_format": "hh-sol-artifact-1",
  "contractName": "RevenueSharing",
  "sourceName": "contracts/RevenueSharing.sol",
  "abi": [
    {
      "inputs": [
        {
          "internalType": "address",
          "name": "_profitHiveToken",
          "type": "address"
        },
        {
          "internalType": "address",
          "name": "initialOwner",
          "type": "address"
        }
      ],
      "stateMutability": "nonpayable",
      "type": "constructor"
    },
    {
      "inputs": [],
      "name": "EnforcedPause",
      "type": "error"
    },
    {
      "inputs": [],
      "name": "ExpectedPause",
      "type": "error"
    },
    {
      "inputs": [
        {
          "internalType": "address",
          "name": "owner",
          "type": "address"
        }
      ],
      "name": "OwnableInvalidOwner",
      "type": "error"
    },
    {
      "inputs": [
        {
          "internalType": "address",
          "name": "account",
          "type": "address"
        }
      ],
      "name": "OwnableUnauthorizedAccount",
      "type": "error"
    },
    {
      "inputs": [],
      "name": "ReentrancyGuardReentrantCall",
      "type": "error"
    },
    {
      "anonymous": false,
      "inputs": [
        {
          "indexed": true,
          "internalType": "uint256",
          "name": "rewardId",
          "type": "uint256"
        },
        {
          "indexed": false,
          "internalType": "address",
          "name": "forecaster",
          "type": "address"
        },
        {
          "indexed": false,
          "internalType": "uint256",
          "name": "accuracy",
          "type": "uint256"
        },
        {
          "indexed": false,
          "internalType": "uint256",
          "name": "reward",
          "type": "uint256"
        }
      ],
      "name": "ForecastRewardAdded",
      "type": "event"
    },
    {
      "anonymous": false,
      "inputs": [
        {
          "indexed": true,
          "internalType": "uint256",
          "name": "rewardId",
          "type": "uint256"
        },
        {
          "indexed": false,
          "internalType": "address",
          "name": "forecaster",
          "type": "address"
        },
        {
          "indexed": false,
          "internalType": "uint256",
          "name": "amount",
          "type": "uint256"
        }
      ],
      "name": "ForecastRewardClaimed",
      "type": "event"
    },
    {
      "anonymous": false,
      "inputs": [
        {
          "indexed": true,
          "internalType": "address",
          "name": "previousOwner",
          "type": "address"
        },
        {
          "indexed": true,
          "internalType": "address",
          "name": "newOwner",
          "type": "address"
        }
      ],
      "name": "OwnershipTransferred",
      "type": "event"
    },
    {
      "anonymous": false,
      "inputs": [
        {
          "indexed": false,
          "internalType": "address",
          "name": "account",
          "type": "address"
        }
      ],
      "name": "Paused",
      "type": "event"
    },
    {
      "anonymous": false,
      "inputs": [
        {
          "indexed": true,
          "internalType": "uint256",
          "name": "poolId",
          "type": "uint256"
        },
        {
          "indexed": false,
          "internalType": "uint256",
          "name": "amount",
          "type": "uint256"
        }
      ],
      "name": "RevenueDeposited",
      "type": "event"
    },
    {
      "anonymous": false,
      "inputs": [
        {
          "indexed": true,
          "internalType": "uint256",
          "name": "poolId",
          "type": "uint256"
        },
        {
          "indexed": false,
          "internalType": "uint256",
          "name": "totalAmount",
          "type": "uint256"
        }
      ],
      "name": "RevenueDistributed",
      "type": "event"
    },
    {
      "anonymous": false,
      "inputs": [
        {
          "indexed": true,
          "internalType": "address",
          "name": "user",
          "type": "address"
        },
        {
          "indexed": false,
          "internalType": "uint256",
          "name": "amount",
          "type": "uint256"
        }
      ],
      "name": "RewardsClaimed",
      "type": "event"
    },
    {
      "anonymous": false,
      "inputs": [
        {
          "indexed": true,
          "internalType": "address",
          "name": "user",
          "type": "address"
        },
        {
          "indexed": false,
          "internalType": "uint256",
          "name": "amount",
          "type": "uint256"
        }
      ],
      "name": "Staked",
      "type": "event"
    },
    {
      "anonymous": false,
      "inputs": [
        {
          "indexed": false,
          "internalType": "address",
          "name": "account",
          "type": "address"
        }
      ],
      "name": "Unpaused",
      "type": "event"
    },
    {
      "anonymous": false,
      "inputs": [
        {
          "indexed": true,
          "internalType": "address",
          "name": "user",
          "type": "address"
        },
        {
          "indexed": false,
          "internalType": "uint256",
          "name": "amount",
          "type": "uint256"
        }
      ],
      "name": "Unstaked",
      "type": "event"
    },
    {
      "inputs": [
        {
          "internalType": "address",
          "name": "forecaster",
          "type": "address"
        },
        {
          "internalType": "uint256",
          "name": "accuracy",
          "type": "uint256"
        },
        {
          "internalType": "uint256",
          "name": "rewardAmount",
          "type": "uint256"
        }
      ],
      "name": "addForecastReward",
      "outputs": [],
      "stateMutability": "nonpayable",
      "type": "function"
    },
    {
      "inputs": [
        {
          "internalType": "uint256",
          "name": "rewardId",
          "type": "uint256"
        }
      ],
      "name": "claimForecastReward",
      "outputs": [],
      "stateMutability": "nonpayable",
      "type": "function"
    },
    {
      "inputs": [],
      "name": "claimStakingRewards",
      "outputs": [],
      "stateMutability": "nonpayable",
      "type": "function"
    },
    {
      "inputs": [
        {
          "internalType": "address",
          "name": "",
          "type": "address"
        }
      ],
      "name": "claimableRewards",
      "outputs": [
        {
          "internalType": "uint256",
          "name": "",
          "type": "uint256"
        }
      ],
      "stateMutability": "view",
      "type": "function"
    },
    {
      "inputs": [],
      "name": "currentPoolId",
      "outputs": [
        {
          "internalType": "uint256",
          "name": "",
          "type": "uint256"
        }
      ],
      "stateMutability": "view",
      "type": "function"
    },
    {
      "inputs": [],
      "name": "depositRevenue",
      "outputs": [],
      "stateMutability": "payable",
      "type": "function"
    },
    {
      "inputs": [
        {
          "internalType": "uint256",
          "name": "poolId",
          "type": "uint256"
        }
      ],
      "name": "distributeRevenue",
      "outputs": [],
      "stateMutability": "nonpayable",
      "type": "function"
    },
    {
      "inputs": [],
      "name": "emergencyWithdraw",
      "outputs": [],
      "stateMutability": "nonpayable",
      "type": "function"
    },
    {
      "inputs": [],
      "name": "forecastRewardId",
      "outputs": [
        {
          "internalType": "uint256",
          "name": "",
          "type": "uint256"
        }
      ],
      "stateMutability": "view",
      "type": "function"
    },
    {
      "inputs": [
        {
          "internalType": "uint256",
          "name": "",
          "type": "uint256"
        }
      ],
      "name": "forecastRewards",
      "outputs": [
        {
          "internalType": "address",
          "name": "forecaster",
          "type": "address"
        },
        {
          "internalType": "uint256",
          "name": "accuracy",
          "type": "uint256"
        },
        {
          "internalType": "uint256",
          "name": "rewardAmount",
          "type": "uint256"
        },
        {
          "internalType": "uint256",
          "name": "timestamp",
          "type": "uint256"
        },
        {
          "internalType": "bool",
          "name": "claimed",
          "type": "bool"
        }
      ],
      "stateMutability": "view",
      "type": "function"
    },
    {
      "inputs": [],
      "name": "forecastersShare",
      "outputs": [
        {
          "internalType": "uint256",
          "name": "",
          "type": "uint256"
        }
      ],
      "stateMutability": "view",
      "type": "function"
    },
    {
      "inputs": [
        {
          "internalType": "address",
          "name": "user",
          "type": "address"
        }
      ],
      "name": "getUserStakeInfo",
      "outputs": [
        {
          "internalType": "uint256",
          "name": "stakedAmount",
          "type": "uint256"
        },
        {
          "internalType": "uint256",
          "name": "stakingTimestamp",
          "type": "uint256"
        },
        {
          "internalType": "uint256",
          "name": "claimableAmount",
          "type": "uint256"
        },
        {
          "internalType": "bool",
          "name": "canUnstake",
          "type": "bool"
        }
      ],
      "stateMutability": "view",
      "type": "function"
    },
    {
      "inputs": [],
      "name": "minStakingPeriod",
      "outputs": [
        {
          "internalType": "uint256",
          "name": "",
          "type": "uint256"
        }
      ],
      "stateMutability": "view",
      "type": "function"
    },
    {
      "inputs": [],
      "name": "owner",
      "outputs": [
        {
          "internalType": "address",
          "name": "",
          "type": "address"
        }
      ],
      "stateMutability": "view",
      "type": "function"
    },
    {
      "inputs": [],
      "name": "pause",
      "outputs": [],
      "stateMutability": "nonpayable",
      "type": "function"
    },
    {
      "inputs": [],
      "name": "paused",
      "outputs": [
        {
          "internalType": "bool",
          "name": "",
          "type": "bool"
        }
      ],
      "stateMutability": "view",
      "type": "function"
    },
    {
      "inputs": [],
      "name": "platformShare",
      "outputs": [
        {
          "internalType": "uint256",
          "name": "",
          "type": "uint256"
        }
      ],
      "stateMutability": "view",
      "type": "function"
    },
    {
      "inputs": [],
      "name": "profitHiveToken",
      "outputs": [
        {
          "internalType": "contract ProfitHiveToken",
          "name": "",
          "type": "address"
        }
      ],
      "stateMutability": "view",
      "type": "function"
    },
    {
      "inputs": [],
      "name": "renounceOwnership",
      "outputs": [],
      "stateMutability": "nonpayable",
      "type": "function"
    },
    {
      "inputs": [
        {
          "internalType": "uint256",
          "name": "",
          "type": "uint256"
        }
      ],
      "name": "revenuePools",
      "outputs": [
        {
          "internalType": "uint256",
          "name": "totalRevenue",
          "type": "uint256"
        },
        {
          "internalType": "uint256",
          "name": "distributedRevenue",
          "type": "uint256"
        },
        {
          "internalType": "uint256",
          "name": "timestamp",
          "type": "uint256"
        },
        {
          "internalType": "bool",
          "name": "isDistributed",
          "type": "bool"
        }
      ],
      "stateMutability": "view",
      "type": "function"
    },
    {
      "inputs": [
        {
          "internalType": "uint256",
          "name": "amount",
          "type": "uint256"
        }
      ],
      "name": "stake",
      "outputs": [],
      "stateMutability": "nonpayable",
      "type": "function"
    },
    {
      "inputs": [],
      "name": "stakersShare",
      "outputs": [
        {
          "internalType": "uint256",
          "name": "",
          "type": "uint256"
        }
      ],
      "stateMutability": "view",
      "type": "function"
    },
    {
      "inputs": [],
      "name": "totalStaked",
      "outputs": [
        {
          "internalType": "uint256",
          "name": "",
          "type": "uint256"
        }
      ],
      "stateMutability": "view",
      "type": "function"
    },
    {
      "inputs": [
        {
          "internalType": "address",
          "name": "newOwner",
          "type": "address"
        }
      ],
      "name": "transferOwnership",
      "outputs": [],
      "stateMutability": "nonpayable",
      "type": "function"
    },
    {
      "inputs": [],
      "name": "unpause",
      "outputs": [],
      "stateMutability": "nonpayable",
      "type": "function"
    },
    {
      "inputs": [
        {
          "internalType": "uint256",
          "name": "amount",
          "type": "uint256"
        }
      ],
      "name": "unstake",
      "outputs": [],
      "stateMutability": "nonpayable",
      "type": "function"
    },
    {
      "inputs": [
        {
          "internalType": "uint256",
          "name": "_stakersShare",
          "type": "uint256"
        },
        {
          "internalType": "uint256",
          "name": "_forecastersShare",
          "type": "uint256"
        },
        {
          "internalType": "uint256",
          "name": "_platformShare",
          "type": "uint256"
        }
      ],
      "name": "updateRevenueShares",
      "outputs": [],
      "stateMutability": "nonpayable",
      "type": "function"
    },
    {
      "inputs": [
        {
          "internalType": "address",
          "name": "",
          "type": "address"
        }
      ],
      "name": "userStakes",
      "outputs": [
        {
          "internalType": "uint256",
          "name": "amount",
          "type": "uint256"
        },
        {
          "internalType": "uint256",
          "name": "stakingTimestamp",
          "type": "uint256"
        },
        {
          "internalType": "uint256",
          "name": "lastRewardClaim",
          "type": "uint256"
        }
      ],
      "stateMutability": "view",
      "type": "function"
    }
  ],
  "bytecode": "0x60a060405262093a80600955611770600b556107d0600c556107d0600d553480156200002a57600080fd5b50604051620016dc380380620016dc8339810160408190526200004d916200010d565b806001600160a01b0381166200007d57604051631e4fbdf760e01b81526000600482015260240160405180910390fd5b6200008881620000a0565b5050600180556001600160a01b031660805262000145565b600080546001600160a01b038381166001600160a01b0319831681178455604051919092169283917f8be0079c531659141344cd1fd0a4f28419497f9722a3daafe3b4186f6b6457e09190a35050565b80516001600160a01b03811681146200010857600080fd5b919050565b600080604083850312156200012157600080fd5b6200012c83620000f0565b91506200013c60208401620000f0565b90509250929050565b60805161156d6200016f60003960008181610523015281816107020152610d80015261156d6000f3fe6080604052600436106101b75760003560e01c8063817b1cd2116100ec578063c1f414861161008a578063db2e21bc11610064578063db2e21bc14610565578063dc01f60d1461057a578063ebc5163b146105a7578063f2fde38b146105bd57600080fd5b8063c1f41486146104f1578063c311550014610511578063c32d3ae21461054557600080fd5b80638da7ad23116100c65780638da7ad231461044457806398d15e131461049b5780639ec56ef9146104b1578063a694fc3a146104d157600080fd5b8063817b1cd2146103e75780638456cb59146103fd5780638da5cb5b1461041257600080fd5b806340dc9b541161015957806359fde1e01161013357806359fde1e01461037a5780635c975abb1461039a5780636b69e05b146103bd578063715018a6146103d257600080fd5b806340dc9b54146102f357806344e43cb8146103095780634bda1d381461031157600080fd5b806331da53541161019557806331da53541461021d578063349a48681461023357806337244f33146102535780633f4ba83a146102de57600080fd5b8063069c34f6146101bc57806315011d89146101e55780632e17de78146101fb575b600080fd5b3480156101c857600080fd5b506101d260095481565b6040519081526020015b60405180910390f35b3480156101f157600080fd5b506101d2600b5481565b34801561020757600080fd5b5061021b6102163660046113cb565b6105dd565b005b34801561022957600080fd5b506101d2600a5481565b34801561023f57600080fd5b5061021b61024e3660046113cb565b6107f8565b34801561025f57600080fd5b506102aa61026e3660046113cb565b600660205260009081526040902080546001820154600283015460038401546004909401546001600160a01b0390931693919290919060ff1685565b604080516001600160a01b03909616865260208601949094529284019190915260608301521515608082015260a0016101dc565b3480156102ea57600080fd5b5061021b610993565b3480156102ff57600080fd5b506101d2600c5481565b61021b6109a5565b34801561031d57600080fd5b5061035861032c3660046113cb565b600360208190526000918252604090912080546001820154600283015492909301549092919060ff1684565b60408051948552602085019390935291830152151560608201526080016101dc565b34801561038657600080fd5b5061021b6103953660046113cb565b610aa1565b3480156103a657600080fd5b5060025460ff1660405190151581526020016101dc565b3480156103c957600080fd5b5061021b610c3b565b3480156103de57600080fd5b5061021b610c55565b3480156103f357600080fd5b506101d260085481565b34801561040957600080fd5b5061021b610c67565b34801561041e57600080fd5b506000546001600160a01b03165b6040516001600160a01b0390911681526020016101dc565b34801561045057600080fd5b5061048061045f366004611400565b60046020526000908152604090208054600182015460029092015490919083565b604080519384526020840192909252908201526060016101dc565b3480156104a757600080fd5b506101d2600d5481565b3480156104bd57600080fd5b5061021b6104cc366004611422565b610c77565b3480156104dd57600080fd5b5061021b6104ec3660046113cb565b610cf2565b3480156104fd57600080fd5b5061021b61050c36600461144e565b610ec4565b34801561051d57600080fd5b5061042c7f000000000000000000000000000000000000000000000000000000000000000081565b34801561055157600080fd5b50610358610560366004611400565b611056565b34801561057157600080fd5b5061021b6110cd565b34801561058657600080fd5b506101d2610595366004611400565b60056020526000908152604090205481565b3480156105b357600080fd5b506101d260075481565b3480156105c957600080fd5b5061021b6105d8366004611400565b61110f565b6105e561114a565b336000908152600460205260409020805482111561064a5760405162461bcd60e51b815260206004820152601a60248201527f496e73756666696369656e74207374616b656420616d6f756e7400000000000060448201526064015b60405180910390fd5b600954816001015461065c9190611497565b4210156106ab5760405162461bcd60e51b815260206004820152601e60248201527f4d696e696d756d207374616b696e6720706572696f64206e6f74206d657400006044820152606401610641565b6106b433611174565b818160000160008282546106c891906114b0565b9250508190555081600860008282546106e191906114b0565b909155505060405163a9059cbb60e01b8152336004820152602481018390527f00000000000000000000000000000000000000000000000000000000000000006001600160a01b03169063a9059cbb906044016020604051808303816000875af1158015610753573d6000803e3d6000fd5b505050506040513d601f19601f8201168201806040525081019061077791906114c3565b6107b55760405162461bcd60e51b815260206004820152600f60248201526e151c985b9cd9995c8819985a5b1959608a1b6044820152606401610641565b60405182815233907f0f5bb82176feb1b5e747e28471aa92156a04d9f3ab9f45f28e2d704232b93f75906020015b60405180910390a2506107f560018055565b50565b61080061114a565b600081815260066020526040902080546001600160a01b031633146108595760405162461bcd60e51b815260206004820152600f60248201526e139bdd081e5bdd5c881c995dd85c99608a1b6044820152606401610641565b600481015460ff16156108a75760405162461bcd60e51b815260206004820152601660248201527514995dd85c9908185b1c9958591e4818db185a5b595960521b6044820152606401610641565b60048101805460ff19166001179055600281015460405160009133918381818185875af1925050503d80600081146108fb576040519150601f19603f3d011682016040523d82523d6000602084013e610900565b606091505b50509050806109475760405162461bcd60e51b8152602060048201526013602482015272115512081d1c985b9cd9995c8819985a5b1959606a1b6044820152606401610641565b600282015460408051338152602081019290925284917f4266ed966667b8b6053b58885151d25e814f84fdcf55175616cea638f8a1b4cf910160405180910390a250506107f560018055565b61099b611278565b6109a36112a5565b565b6109ad611278565b600034116109fd5760405162461bcd60e51b815260206004820152601e60248201527f526576656e7565206d7573742062652067726561746572207468616e203000006044820152606401610641565b60078054906000610a0d836114e5565b909155505060408051608081018252348082526000602080840182815242858701908152606086018481526007805486526003808652958990209751885592516001880155905160028701555194909201805460ff1916941515949094179093555492519081527fb20d89f6552ecc9b6927807870a2e0a3ead94efac32d88ca11d3ff17b744aa90910160405180910390a2565b610aa9611278565b610ab161114a565b60008181526003602081905260409091209081015460ff1615610b165760405162461bcd60e51b815260206004820152601b60248201527f526576656e756520616c726561647920646973747269627574656400000000006044820152606401610641565b8054610b645760405162461bcd60e51b815260206004820152601860248201527f4e6f20726576656e756520746f206469737472696275746500000000000000006044820152606401610641565b6000612710600b548360000154610b7b91906114fe565b610b859190611515565b90506000612710600c548460000154610b9e91906114fe565b610ba89190611515565b90506000612710600d548560000154610bc191906114fe565b610bcb9190611515565b90506000600854118015610bdf5750600083115b508354600180860182905560038601805460ff1916909117905560405190815285907ff2838e4b541f90d41a1076a560d75e948f7d1008e72118a655568626a30b451f9060200160405180910390a2505050506107f560018055565b610c4361114a565b610c4c33611174565b6109a360018055565b610c5d611278565b6109a360006112f7565b610c6f611278565b6109a3611347565b610c7f611278565b80610c8a8385611497565b610c949190611497565b61271014610ce45760405162461bcd60e51b815260206004820152601760248201527f536861726573206d7573742073756d20746f20313030250000000000000000006044820152606401610641565b600b92909255600c55600d55565b610cfa61114a565b610d02611384565b60008111610d5e5760405162461bcd60e51b815260206004820152602360248201527f5374616b6520616d6f756e74206d75737420626520677265617465722074686160448201526206e20360ec1b6064820152608401610641565b6040516323b872dd60e01b8152336004820152306024820152604481018290527f00000000000000000000000000000000000000000000000000000000000000006001600160a01b0316906323b872dd906064016020604051808303816000875af1158015610dd1573d6000803e3d6000fd5b505050506040513d601f19601f82011682018060405250810190610df591906114c3565b610e335760405162461bcd60e51b815260206004820152600f60248201526e151c985b9cd9995c8819985a5b1959608a1b6044820152606401610641565b336000908152600460205260409020805415610e5257610e5233611174565b81816000016000828254610e669190611497565b90915550504260018201819055600282015560088054839190600090610e8d908490611497565b909155505060405182815233907f9e71bc8eea02a63969f509818f2dafb9254532904319f9dbda79b67bd34a5f3d906020016107e3565b610ecc611278565b6001600160a01b038316610f225760405162461bcd60e51b815260206004820152601a60248201527f496e76616c696420666f726563617374657220616464726573730000000000006044820152606401610641565b612710821115610f745760405162461bcd60e51b815260206004820152601b60248201527f41636375726163792063616e6e6f7420657863656564203130302500000000006044820152606401610641565b600a8054906000610f84836114e5565b90915550506040805160a0810182526001600160a01b038581168083526020808401878152848601878152426060808801918252600060808901818152600a8054835260068852918b902099518a546001600160a01b0319169916989098178955935160018901559151600288015551600387015593516004909501805460ff1916951515959095179094559254845191825292810186905292830184905290917fe9e819f2c6733d92329c91c15095f293414b3f72687c2a165117d41cb25d0a2491015b60405180910390a2505050565b6001600160a01b03811660008181526004602090815260408083208151606081018352815480825260018301548286018181526002909401548386015296865260059094529184205460095491519495869586958695949093916110ba9190611497565b4210159450945094509450509193509193565b6110d5611278565b600080546040516001600160a01b03909116914780156108fc02929091818181858888f193505050501580156107f5573d6000803e3d6000fd5b611117611278565b6001600160a01b03811661114157604051631e4fbdf760e01b815260006004820152602401610641565b6107f5816112f7565b60026001540361116d57604051633ee5aeb560e01b815260040160405180910390fd5b6002600155565b6001600160a01b0381166000908152600560205260409020548015611274576001600160a01b0382166000818152600560205260408082208290555190919083908381818185875af1925050503d80600081146111ed576040519150601f19603f3d011682016040523d82523d6000602084013e6111f2565b606091505b50509050806112395760405162461bcd60e51b8152602060048201526013602482015272115512081d1c985b9cd9995c8819985a5b1959606a1b6044820152606401610641565b826001600160a01b03167ffc30cddea38e2bf4d6ea7d3f9ed3b6ad7f176419f4963bd81318067a4aee73fe8360405161104991815260200190565b5050565b6000546001600160a01b031633146109a35760405163118cdaa760e01b8152336004820152602401610641565b6112ad6113a8565b6002805460ff191690557f5db9ee0a495bf2e6ff9c91a7834c1ba4fdd244a5e8aa4e537bd38aeae4b073aa335b6040516001600160a01b03909116815260200160405180910390a1565b600080546001600160a01b038381166001600160a01b0319831681178455604051919092169283917f8be0079c531659141344cd1fd0a4f28419497f9722a3daafe3b4186f6b6457e09190a35050565b61134f611384565b6002805460ff191660011790557f62e78cea01bee320cd4e420270b5ea74000d11b0c9f74754ebdbfc544b05a2586112da3390565b60025460ff16156109a35760405163d93c066560e01b815260040160405180910390fd5b60025460ff166109a357604051638dfc202b60e01b815260040160405180910390fd5b6000602082840312156113dd57600080fd5b5035919050565b80356001600160a01b03811681146113fb57600080fd5b919050565b60006020828403121561141257600080fd5b61141b826113e4565b9392505050565b60008060006060848603121561143757600080fd5b505081359360208301359350604090920135919050565b60008060006060848603121561146357600080fd5b61146c846113e4565b95602085013595506040909401359392505050565b634e487b7160e01b600052601160045260246000fd5b808201808211156114aa576114aa611481565b92915050565b818103818111156114aa576114aa611481565b6000602082840312156114d557600080fd5b8151801515811461141b57600080fd5b6000600182016114f7576114f7611481565b5060010190565b80820281158282048414176114aa576114aa611481565b60008261153257634e487b7160e01b600052601260045260246000fd5b50049056fea2646970667358221220e31af3cc69a7273beb47e3e8a6e3fdf1110ead934e2bdf569615deefd74419dd64736f6c63430008140033",
  "linkReferences": {},
  "deployedLinkReferences": {}
}