{
  "_format": "hh-sol-artifact-1",
  "contractName": "RevenueSharing",
  "sourceName": "contracts/RevenueSharing.sol",
  "abi": [
    {
      "inputs": [
        {
          "internalType": "address",
          "name": "_profitHiveToken",
          "type": "address"
        },
        {
          "internalType": "address",
          "name": "initialOwner",
          "type": "address"
        }
      ],
      "stateMutability": "nonpayable",
      "type": "constructor"
    },
    {
      "inputs": [],
      "name": "AlreadyClaimed",
      "type": "error"
    },
    {
      "inputs": [],
      "name": "AlreadyDistributed",
      "type": "error"
    },
    {
      "inputs": [],
      "name": "EnforcedPause",
      "type": "error"
    },
    {
      "inputs": [],
      "name": "ExpectedPause",
      "type": "error"
    },
    {
      "inputs": [],
      "name": "InsufficientRevenue",
      "type": "error"
    },
    {
      "inputs": [],
      "name": "InsufficientStake",
      "type": "error"
    },
    {
      "inputs": [],
      "name": "InvalidAccuracy",
      "type": "error"
    },
    {
      "inputs": [],
      "name": "InvalidAmount",
      "type": "error"
    },
    {
      "inputs": [],
      "name": "InvalidForecaster",
      "type": "error"
    },
    {
      "inputs": [],
      "name": "InvalidShare",
      "type": "error"
    },
    {
      "inputs": [],
      "name": "MinimumStakingPeriod",
      "type": "error"
    },
    {
      "inputs": [],
      "name": "NotAuthorized",
      "type": "error"
    },
    {
      "inputs": [
        {
          "internalType": "address",
          "name": "owner",
          "type": "address"
        }
      ],
      "name": "OwnableInvalidOwner",
      "type": "error"
    },
    {
      "inputs": [
        {
          "internalType": "address",
          "name": "account",
          "type": "address"
        }
      ],
      "name": "OwnableUnauthorizedAccount",
      "type": "error"
    },
    {
      "inputs": [],
      "name": "ReentrancyGuardReentrantCall",
      "type": "error"
    },
    {
      "inputs": [],
      "name": "TransferFailed",
      "type": "error"
    },
    {
      "anonymous": false,
      "inputs": [
        {
          "indexed": true,
          "internalType": "uint256",
          "name": "rewardId",
          "type": "uint256"
        },
        {
          "indexed": false,
          "internalType": "address",
          "name": "forecaster",
          "type": "address"
        },
        {
          "indexed": false,
          "internalType": "uint256",
          "name": "accuracy",
          "type": "uint256"
        },
        {
          "indexed": false,
          "internalType": "uint256",
          "name": "reward",
          "type": "uint256"
        }
      ],
      "name": "ForecastRewardAdded",
      "type": "event"
    },
    {
      "anonymous": false,
      "inputs": [
        {
          "indexed": true,
          "internalType": "uint256",
          "name": "rewardId",
          "type": "uint256"
        },
        {
          "indexed": false,
          "internalType": "address",
          "name": "forecaster",
          "type": "address"
        },
        {
          "indexed": false,
          "internalType": "uint256",
          "name": "amount",
          "type": "uint256"
        }
      ],
      "name": "ForecastRewardClaimed",
      "type": "event"
    },
    {
      "anonymous": false,
      "inputs": [
        {
          "indexed": true,
          "internalType": "address",
          "name": "previousOwner",
          "type": "address"
        },
        {
          "indexed": true,
          "internalType": "address",
          "name": "newOwner",
          "type": "address"
        }
      ],
      "name": "OwnershipTransferred",
      "type": "event"
    },
    {
      "anonymous": false,
      "inputs": [
        {
          "indexed": false,
          "internalType": "address",
          "name": "account",
          "type": "address"
        }
      ],
      "name": "Paused",
      "type": "event"
    },
    {
      "anonymous": false,
      "inputs": [
        {
          "indexed": true,
          "internalType": "uint256",
          "name": "poolId",
          "type": "uint256"
        },
        {
          "indexed": false,
          "internalType": "uint256",
          "name": "amount",
          "type": "uint256"
        }
      ],
      "name": "RevenueDeposited",
      "type": "event"
    },
    {
      "anonymous": false,
      "inputs": [
        {
          "indexed": true,
          "internalType": "uint256",
          "name": "poolId",
          "type": "uint256"
        },
        {
          "indexed": false,
          "internalType": "uint256",
          "name": "totalAmount",
          "type": "uint256"
        }
      ],
      "name": "RevenueDistributed",
      "type": "event"
    },
    {
      "anonymous": false,
      "inputs": [
        {
          "indexed": true,
          "internalType": "address",
          "name": "user",
          "type": "address"
        },
        {
          "indexed": false,
          "internalType": "uint256",
          "name": "amount",
          "type": "uint256"
        }
      ],
      "name": "RewardsClaimed",
      "type": "event"
    },
    {
      "anonymous": false,
      "inputs": [
        {
          "indexed": true,
          "internalType": "address",
          "name": "user",
          "type": "address"
        },
        {
          "indexed": false,
          "internalType": "uint256",
          "name": "amount",
          "type": "uint256"
        }
      ],
      "name": "Staked",
      "type": "event"
    },
    {
      "anonymous": false,
      "inputs": [
        {
          "indexed": false,
          "internalType": "address",
          "name": "account",
          "type": "address"
        }
      ],
      "name": "Unpaused",
      "type": "event"
    },
    {
      "anonymous": false,
      "inputs": [
        {
          "indexed": true,
          "internalType": "address",
          "name": "user",
          "type": "address"
        },
        {
          "indexed": false,
          "internalType": "uint256",
          "name": "amount",
          "type": "uint256"
        }
      ],
      "name": "Unstaked",
      "type": "event"
    },
    {
      "inputs": [
        {
          "internalType": "address",
          "name": "forecaster",
          "type": "address"
        },
        {
          "internalType": "uint256",
          "name": "accuracy",
          "type": "uint256"
        },
        {
          "internalType": "uint256",
          "name": "rewardAmount",
          "type": "uint256"
        }
      ],
      "name": "addForecastReward",
      "outputs": [],
      "stateMutability": "nonpayable",
      "type": "function"
    },
    {
      "inputs": [
        {
          "internalType": "uint256",
          "name": "rewardId",
          "type": "uint256"
        }
      ],
      "name": "claimForecastReward",
      "outputs": [],
      "stateMutability": "nonpayable",
      "type": "function"
    },
    {
      "inputs": [],
      "name": "claimStakingRewards",
      "outputs": [],
      "stateMutability": "nonpayable",
      "type": "function"
    },
    {
      "inputs": [
        {
          "internalType": "address",
          "name": "",
          "type": "address"
        }
      ],
      "name": "claimableRewards",
      "outputs": [
        {
          "internalType": "uint256",
          "name": "",
          "type": "uint256"
        }
      ],
      "stateMutability": "view",
      "type": "function"
    },
    {
      "inputs": [],
      "name": "currentPoolId",
      "outputs": [
        {
          "internalType": "uint256",
          "name": "",
          "type": "uint256"
        }
      ],
      "stateMutability": "view",
      "type": "function"
    },
    {
      "inputs": [],
      "name": "depositRevenue",
      "outputs": [],
      "stateMutability": "payable",
      "type": "function"
    },
    {
      "inputs": [
        {
          "internalType": "uint256",
          "name": "poolId",
          "type": "uint256"
        }
      ],
      "name": "distributeRevenue",
      "outputs": [],
      "stateMutability": "nonpayable",
      "type": "function"
    },
    {
      "inputs": [],
      "name": "emergencyWithdraw",
      "outputs": [],
      "stateMutability": "nonpayable",
      "type": "function"
    },
    {
      "inputs": [],
      "name": "forecastRewardId",
      "outputs": [
        {
          "internalType": "uint256",
          "name": "",
          "type": "uint256"
        }
      ],
      "stateMutability": "view",
      "type": "function"
    },
    {
      "inputs": [
        {
          "internalType": "uint256",
          "name": "",
          "type": "uint256"
        }
      ],
      "name": "forecastRewards",
      "outputs": [
        {
          "internalType": "address",
          "name": "forecaster",
          "type": "address"
        },
        {
          "internalType": "uint256",
          "name": "accuracy",
          "type": "uint256"
        },
        {
          "internalType": "uint256",
          "name": "rewardAmount",
          "type": "uint256"
        },
        {
          "internalType": "uint256",
          "name": "timestamp",
          "type": "uint256"
        },
        {
          "internalType": "bool",
          "name": "claimed",
          "type": "bool"
        }
      ],
      "stateMutability": "view",
      "type": "function"
    },
    {
      "inputs": [],
      "name": "forecastersShare",
      "outputs": [
        {
          "internalType": "uint256",
          "name": "",
          "type": "uint256"
        }
      ],
      "stateMutability": "view",
      "type": "function"
    },
    {
      "inputs": [
        {
          "internalType": "address",
          "name": "user",
          "type": "address"
        }
      ],
      "name": "getUserStakeInfo",
      "outputs": [
        {
          "internalType": "uint256",
          "name": "stakedAmount",
          "type": "uint256"
        },
        {
          "internalType": "uint256",
          "name": "stakingTimestamp",
          "type": "uint256"
        },
        {
          "internalType": "uint256",
          "name": "claimableAmount",
          "type": "uint256"
        },
        {
          "internalType": "bool",
          "name": "canUnstake",
          "type": "bool"
        }
      ],
      "stateMutability": "view",
      "type": "function"
    },
    {
      "inputs": [],
      "name": "minStakingPeriod",
      "outputs": [
        {
          "internalType": "uint256",
          "name": "",
          "type": "uint256"
        }
      ],
      "stateMutability": "view",
      "type": "function"
    },
    {
      "inputs": [],
      "name": "owner",
      "outputs": [
        {
          "internalType": "address",
          "name": "",
          "type": "address"
        }
      ],
      "stateMutability": "view",
      "type": "function"
    },
    {
      "inputs": [],
      "name": "pause",
      "outputs": [],
      "stateMutability": "nonpayable",
      "type": "function"
    },
    {
      "inputs": [],
      "name": "paused",
      "outputs": [
        {
          "internalType": "bool",
          "name": "",
          "type": "bool"
        }
      ],
      "stateMutability": "view",
      "type": "function"
    },
    {
      "inputs": [],
      "name": "platformShare",
      "outputs": [
        {
          "internalType": "uint256",
          "name": "",
          "type": "uint256"
        }
      ],
      "stateMutability": "view",
      "type": "function"
    },
    {
      "inputs": [],
      "name": "profitHiveToken",
      "outputs": [
        {
          "internalType": "contract ProfitHiveToken",
          "name": "",
          "type": "address"
        }
      ],
      "stateMutability": "view",
      "type": "function"
    },
    {
      "inputs": [],
      "name": "renounceOwnership",
      "outputs": [],
      "stateMutability": "nonpayable",
      "type": "function"
    },
    {
      "inputs": [
        {
          "internalType": "uint256",
          "name": "",
          "type": "uint256"
        }
      ],
      "name": "revenuePools",
      "outputs": [
        {
          "internalType": "uint256",
          "name": "totalRevenue",
          "type": "uint256"
        },
        {
          "internalType": "uint256",
          "name": "distributedRevenue",
          "type": "uint256"
        },
        {
          "internalType": "uint256",
          "name": "timestamp",
          "type": "uint256"
        },
        {
          "internalType": "bool",
          "name": "isDistributed",
          "type": "bool"
        }
      ],
      "stateMutability": "view",
      "type": "function"
    },
    {
      "inputs": [
        {
          "internalType": "uint256",
          "name": "amount",
          "type": "uint256"
        }
      ],
      "name": "stake",
      "outputs": [],
      "stateMutability": "nonpayable",
      "type": "function"
    },
    {
      "inputs": [],
      "name": "stakersShare",
      "outputs": [
        {
          "internalType": "uint256",
          "name": "",
          "type": "uint256"
        }
      ],
      "stateMutability": "view",
      "type": "function"
    },
    {
      "inputs": [],
      "name": "totalStaked",
      "outputs": [
        {
          "internalType": "uint256",
          "name": "",
          "type": "uint256"
        }
      ],
      "stateMutability": "view",
      "type": "function"
    },
    {
      "inputs": [
        {
          "internalType": "address",
          "name": "newOwner",
          "type": "address"
        }
      ],
      "name": "transferOwnership",
      "outputs": [],
      "stateMutability": "nonpayable",
      "type": "function"
    },
    {
      "inputs": [],
      "name": "unpause",
      "outputs": [],
      "stateMutability": "nonpayable",
      "type": "function"
    },
    {
      "inputs": [
        {
          "internalType": "uint256",
          "name": "amount",
          "type": "uint256"
        }
      ],
      "name": "unstake",
      "outputs": [],
      "stateMutability": "nonpayable",
      "type": "function"
    },
    {
      "inputs": [
        {
          "internalType": "uint256",
          "name": "_stakersShare",
          "type": "uint256"
        },
        {
          "internalType": "uint256",
          "name": "_forecastersShare",
          "type": "uint256"
        },
        {
          "internalType": "uint256",
          "name": "_platformShare",
          "type": "uint256"
        }
      ],
      "name": "updateRevenueShares",
      "outputs": [],
      "stateMutability": "nonpayable",
      "type": "function"
    },
    {
      "inputs": [
        {
          "internalType": "address",
          "name": "",
          "type": "address"
        }
      ],
      "name": "userStakes",
      "outputs": [
        {
          "internalType": "uint256",
          "name": "amount",
          "type": "uint256"
        },
        {
          "internalType": "uint256",
          "name": "stakingTimestamp",
          "type": "uint256"
        },
        {
          "internalType": "uint256",
          "name": "lastRewardClaim",
          "type": "uint256"
        }
      ],
      "stateMutability": "view",
      "type": "function"
    }
  ],
  "bytecode": "0x60a060405262093a80600955611770600b556107d0600c556107d0600d5534801561002957600080fd5b50604051620013923803806200139283398101604081905261004a91610105565b806001600160a01b03811661007957604051631e4fbdf760e01b81526000600482015260240160405180910390fd5b61008281610099565b5050600180556001600160a01b0316608052610138565b600080546001600160a01b038381166001600160a01b0319831681178455604051919092169283917f8be0079c531659141344cd1fd0a4f28419497f9722a3daafe3b4186f6b6457e09190a35050565b80516001600160a01b038116811461010057600080fd5b919050565b6000806040838503121561011857600080fd5b610121836100e9565b915061012f602084016100e9565b90509250929050565b60805161123062000162600039600081816105230152818161067d0152610b6e01526112306000f3fe6080604052600436106101b75760003560e01c8063817b1cd2116100ec578063c1f414861161008a578063db2e21bc11610064578063db2e21bc14610565578063dc01f60d1461057a578063ebc5163b146105a7578063f2fde38b146105bd57600080fd5b8063c1f41486146104f1578063c311550014610511578063c32d3ae21461054557600080fd5b80638da7ad23116100c65780638da7ad231461044457806398d15e131461049b5780639ec56ef9146104b1578063a694fc3a146104d157600080fd5b8063817b1cd2146103e75780638456cb59146103fd5780638da5cb5b1461041257600080fd5b806340dc9b541161015957806359fde1e01161013357806359fde1e01461037a5780635c975abb1461039a5780636b69e05b146103bd578063715018a6146103d257600080fd5b806340dc9b54146102f357806344e43cb8146103095780634bda1d381461031157600080fd5b806331da53541161019557806331da53541461021d578063349a48681461023357806337244f33146102535780633f4ba83a146102de57600080fd5b8063069c34f6146101bc57806315011d89146101e55780632e17de78146101fb575b600080fd5b3480156101c857600080fd5b506101d260095481565b6040519081526020015b60405180910390f35b3480156101f157600080fd5b506101d2600b5481565b34801561020757600080fd5b5061021b6102163660046110e5565b6105dd565b005b34801561022957600080fd5b506101d2600a5481565b34801561023f57600080fd5b5061021b61024e3660046110e5565b610752565b34801561025f57600080fd5b506102aa61026e3660046110e5565b600660205260009081526040902080546001820154600283015460038401546004909401546001600160a01b0390931693919290919060ff1685565b604080516001600160a01b03909616865260208601949094529284019190915260608301521515608082015260a0016101dc565b3480156102ea57600080fd5b5061021b61087f565b3480156102ff57600080fd5b506101d2600c5481565b61021b610891565b34801561031d57600080fd5b5061035861032c3660046110e5565b600360208190526000918252604090912080546001820154600283015492909301549092919060ff1684565b60408051948552602085019390935291830152151560608201526080016101dc565b34801561038657600080fd5b5061021b6103953660046110e5565b610955565b3480156103a657600080fd5b5060025460ff1660405190151581526020016101dc565b3480156103c957600080fd5b5061021b610a84565b3480156103de57600080fd5b5061021b610a9e565b3480156103f357600080fd5b506101d260085481565b34801561040957600080fd5b5061021b610ab0565b34801561041e57600080fd5b506000546001600160a01b03165b6040516001600160a01b0390911681526020016101dc565b34801561045057600080fd5b5061048061045f36600461111a565b60046020526000908152604090208054600182015460029092015490919083565b604080519384526020840192909252908201526060016101dc565b3480156104a757600080fd5b506101d2600d5481565b3480156104bd57600080fd5b5061021b6104cc36600461113c565b610ac0565b3480156104dd57600080fd5b5061021b6104ec3660046110e5565b610afc565b3480156104fd57600080fd5b5061021b61050c366004611168565b610c4d565b34801561051d57600080fd5b5061042c7f000000000000000000000000000000000000000000000000000000000000000081565b34801561055157600080fd5b5061035861056036600461111a565b610d83565b34801561057157600080fd5b5061021b610dfa565b34801561058657600080fd5b506101d261059536600461111a565b60056020526000908152604090205481565b3480156105b357600080fd5b506101d260075481565b3480156105c957600080fd5b5061021b6105d836600461111a565b610e3c565b6105e5610e7c565b3360009081526004602052604090208054821115610616576040516378de4a6960e11b815260040160405180910390fd5b6009548160010154610628919061119b565b42101561064857604051635df51be560e11b815260040160405180910390fd5b61065133610ea6565b8054829003815560088054839003905560405163a9059cbb60e01b8152336004820152602481018390527f00000000000000000000000000000000000000000000000000000000000000006001600160a01b03169063a9059cbb906044016020604051808303816000875af11580156106ce573d6000803e3d6000fd5b505050506040513d601f19601f820116820180604052508101906106f291906111c2565b61070f576040516312171d8360e31b815260040160405180910390fd5b60405182815233907f0f5bb82176feb1b5e747e28471aa92156a04d9f3ab9f45f28e2d704232b93f75906020015b60405180910390a25061074f60018055565b50565b61075a610e7c565b600081815260066020526040902080546001600160a01b031633146107925760405163ea8e4eb560e01b815260040160405180910390fd5b600481015460ff16156107b857604051630c8d9eab60e31b815260040160405180910390fd5b60048101805460ff19166001179055600281015460405160009133918381818185875af1925050503d806000811461080c576040519150601f19603f3d011682016040523d82523d6000602084013e610811565b606091505b5050905080610833576040516312171d8360e31b815260040160405180910390fd5b600282015460408051338152602081019290925284917f4266ed966667b8b6053b58885151d25e814f84fdcf55175616cea638f8a1b4cf910160405180910390a2505061074f60018055565b610887610f85565b61088f610fb2565b565b610899610f85565b346000036108ba5760405163b4aa806360e01b815260040160405180910390fd5b60078054600190810180835560408051608081018252348082526000602080840182815242858701908152606086018481529784526003808452938790209551865590519785019790975595516002840155935191909301805460ff1916911515919091179055925492519081527fb20d89f6552ecc9b6927807870a2e0a3ead94efac32d88ca11d3ff17b744aa90910160405180910390a2565b61095d610f85565b610965610e7c565b60008181526003602081905260409091209081015460ff161561099b5760405163cce553a960e01b815260040160405180910390fd5b80546000036109bd5760405163b4aa806360e01b815260040160405180910390fd5b6000806000612710600b54856000015402816109db576109db6111e4565b049250612710600c54856000015402816109f7576109f76111e4565b049150612710600d5485600001540281610a1357610a136111e4565b0490506000600854118015610a285750600083115b508354600180860182905560038601805460ff1916909117905560405190815285907ff2838e4b541f90d41a1076a560d75e948f7d1008e72118a655568626a30b451f9060200160405180910390a25050505061074f60018055565b610a8c610e7c565b610a9533610ea6565b61088f60018055565b610aa6610f85565b61088f6000611004565b610ab8610f85565b61088f611061565b610ac8610f85565b808284010161271014610aee5760405163040357dd60e21b815260040160405180910390fd5b600b92909255600c55600d55565b610b04610e7c565b610b0c61109e565b80600003610b2d5760405163162908e360e11b815260040160405180910390fd5b336000908152600460205260409020805415610b4c57610b4c33610ea6565b6040516323b872dd60e01b8152336004820152306024820152604481018390527f00000000000000000000000000000000000000000000000000000000000000006001600160a01b0316906323b872dd906064016020604051808303816000875af1158015610bbf573d6000803e3d6000fd5b505050506040513d601f19601f82011682018060405250810190610be391906111c2565b610c00576040516312171d8360e31b815260040160405180910390fd5b80548201815560088054830190554260018201819055600282015560405182815233907f9e71bc8eea02a63969f509818f2dafb9254532904319f9dbda79b67bd34a5f3d9060200161073d565b610c55610f85565b6001600160a01b038316610c7c5760405163a0036e3960e01b815260040160405180910390fd5b612710821115610c9f576040516312aa4f0360e21b815260040160405180910390fd5b600a805460019081018083556040805160a0810182526001600160a01b0388811680835260208084018a81528486018a81524260608088019182526000608089018181529a8152600686528990209751885473ffffffffffffffffffffffffffffffffffffffff19169716969096178755915198860198909855965160028501559551600384015593516004909201805460ff19169215159290921790915593548151928352928201869052810184905290917fe9e819f2c6733d92329c91c15095f293414b3f72687c2a165117d41cb25d0a2491015b60405180910390a2505050565b6001600160a01b0381166000818152600460209081526040808320815160608101835281548082526001830154828601818152600290940154838601529686526005909452918420546009549151949586958695869594909391610de7919061119b565b4210159450945094509450509193509193565b610e02610f85565b600080546040516001600160a01b03909116914780156108fc02929091818181858888f1935050505015801561074f573d6000803e3d6000fd5b610e44610f85565b6001600160a01b038116610e7357604051631e4fbdf760e01b8152600060048201526024015b60405180910390fd5b61074f81611004565b600260015403610e9f57604051633ee5aeb560e01b815260040160405180910390fd5b6002600155565b6001600160a01b0381166000908152600560205260409020548015610f81576001600160a01b0382166000818152600560205260408082208290555190919083908381818185875af1925050503d8060008114610f1f576040519150601f19603f3d011682016040523d82523d6000602084013e610f24565b606091505b5050905080610f46576040516312171d8360e31b815260040160405180910390fd5b826001600160a01b03167ffc30cddea38e2bf4d6ea7d3f9ed3b6ad7f176419f4963bd81318067a4aee73fe83604051610d7691815260200190565b5050565b6000546001600160a01b0316331461088f5760405163118cdaa760e01b8152336004820152602401610e6a565b610fba6110c2565b6002805460ff191690557f5db9ee0a495bf2e6ff9c91a7834c1ba4fdd244a5e8aa4e537bd38aeae4b073aa335b6040516001600160a01b03909116815260200160405180910390a1565b600080546001600160a01b0383811673ffffffffffffffffffffffffffffffffffffffff19831681178455604051919092169283917f8be0079c531659141344cd1fd0a4f28419497f9722a3daafe3b4186f6b6457e09190a35050565b61106961109e565b6002805460ff191660011790557f62e78cea01bee320cd4e420270b5ea74000d11b0c9f74754ebdbfc544b05a258610fe73390565b60025460ff161561088f5760405163d93c066560e01b815260040160405180910390fd5b60025460ff1661088f57604051638dfc202b60e01b815260040160405180910390fd5b6000602082840312156110f757600080fd5b5035919050565b80356001600160a01b038116811461111557600080fd5b919050565b60006020828403121561112c57600080fd5b611135826110fe565b9392505050565b60008060006060848603121561115157600080fd5b505081359360208301359350604090920135919050565b60008060006060848603121561117d57600080fd5b611186846110fe565b95602085013595506040909401359392505050565b808201808211156111bc57634e487b7160e01b600052601160045260246000fd5b92915050565b6000602082840312156111d457600080fd5b8151801515811461113557600080fd5b634e487b7160e01b600052601260045260246000fdfea2646970667358221220e4855195d34844a30897800ba597a717ddc44601b54b058cd61bf1ff1d7044f264736f6c63430008140033",
  "linkReferences": {},
  "deployedLinkReferences": {}
}