{
  "_format": "hh-sol-artifact-1",
  "contractName": "ForecastData",
  "sourceName": "contracts/ForecastData.sol",
  "abi": [
    {
      "inputs": [
        {
          "internalType": "address",
          "name": "initialOwner",
          "type": "address"
        }
      ],
      "stateMutability": "nonpayable",
      "type": "constructor"
    },
    {
      "inputs": [],
      "name": "EnforcedPause",
      "type": "error"
    },
    {
      "inputs": [],
      "name": "ExpectedPause",
      "type": "error"
    },
    {
      "inputs": [
        {
          "internalType": "address",
          "name": "owner",
          "type": "address"
        }
      ],
      "name": "OwnableInvalidOwner",
      "type": "error"
    },
    {
      "inputs": [
        {
          "internalType": "address",
          "name": "account",
          "type": "address"
        }
      ],
      "name": "OwnableUnauthorizedAccount",
      "type": "error"
    },
    {
      "anonymous": false,
      "inputs": [
        {
          "indexed": true,
          "internalType": "uint256",
          "name": "forecastId",
          "type": "uint256"
        },
        {
          "indexed": false,
          "internalType": "uint256",
          "name": "accuracy",
          "type": "uint256"
        }
      ],
      "name": "AccuracyCalculated",
      "type": "event"
    },
    {
      "anonymous": false,
      "inputs": [
        {
          "indexed": true,
          "internalType": "uint256",
          "name": "forecastId",
          "type": "uint256"
        },
        {
          "indexed": true,
          "internalType": "address",
          "name": "dataProvider",
          "type": "address"
        }
      ],
      "name": "ActualDataSubmitted",
      "type": "event"
    },
    {
      "anonymous": false,
      "inputs": [
        {
          "indexed": true,
          "internalType": "address",
          "name": "provider",
          "type": "address"
        }
      ],
      "name": "DataProviderAdded",
      "type": "event"
    },
    {
      "anonymous": false,
      "inputs": [
        {
          "indexed": true,
          "internalType": "address",
          "name": "provider",
          "type": "address"
        }
      ],
      "name": "DataProviderRemoved",
      "type": "event"
    },
    {
      "anonymous": false,
      "inputs": [
        {
          "indexed": true,
          "internalType": "uint256",
          "name": "forecastId",
          "type": "uint256"
        },
        {
          "indexed": true,
          "internalType": "address",
          "name": "forecaster",
          "type": "address"
        },
        {
          "indexed": false,
          "internalType": "string",
          "name": "storeId",
          "type": "string"
        },
        {
          "indexed": false,
          "internalType": "uint256",
          "name": "predictionPeriodStart",
          "type": "uint256"
        },
        {
          "indexed": false,
          "internalType": "uint256",
          "name": "predictionPeriodEnd",
          "type": "uint256"
        }
      ],
      "name": "ForecastSubmitted",
      "type": "event"
    },
    {
      "anonymous": false,
      "inputs": [
        {
          "indexed": true,
          "internalType": "address",
          "name": "previousOwner",
          "type": "address"
        },
        {
          "indexed": true,
          "internalType": "address",
          "name": "newOwner",
          "type": "address"
        }
      ],
      "name": "OwnershipTransferred",
      "type": "event"
    },
    {
      "anonymous": false,
      "inputs": [
        {
          "indexed": false,
          "internalType": "address",
          "name": "account",
          "type": "address"
        }
      ],
      "name": "Paused",
      "type": "event"
    },
    {
      "anonymous": false,
      "inputs": [
        {
          "indexed": true,
          "internalType": "string",
          "name": "storeId",
          "type": "string"
        },
        {
          "indexed": false,
          "internalType": "string",
          "name": "name",
          "type": "string"
        },
        {
          "indexed": false,
          "internalType": "address",
          "name": "owner",
          "type": "address"
        }
      ],
      "name": "StoreRegistered",
      "type": "event"
    },
    {
      "anonymous": false,
      "inputs": [
        {
          "indexed": false,
          "internalType": "address",
          "name": "account",
          "type": "address"
        }
      ],
      "name": "Unpaused",
      "type": "event"
    },
    {
      "inputs": [],
      "name": "MIN_ACCURACY_FOR_REWARD",
      "outputs": [
        {
          "internalType": "uint256",
          "name": "",
          "type": "uint256"
        }
      ],
      "stateMutability": "view",
      "type": "function"
    },
    {
      "inputs": [
        {
          "internalType": "string",
          "name": "storeId",
          "type": "string"
        }
      ],
      "name": "activateStore",
      "outputs": [],
      "stateMutability": "nonpayable",
      "type": "function"
    },
    {
      "inputs": [
        {
          "internalType": "address",
          "name": "provider",
          "type": "address"
        }
      ],
      "name": "addDataProvider",
      "outputs": [],
      "stateMutability": "nonpayable",
      "type": "function"
    },
    {
      "inputs": [
        {
          "internalType": "address",
          "name": "",
          "type": "address"
        }
      ],
      "name": "dataProviders",
      "outputs": [
        {
          "internalType": "bool",
          "name": "",
          "type": "bool"
        }
      ],
      "stateMutability": "view",
      "type": "function"
    },
    {
      "inputs": [
        {
          "internalType": "string",
          "name": "storeId",
          "type": "string"
        }
      ],
      "name": "deactivateStore",
      "outputs": [],
      "stateMutability": "nonpayable",
      "type": "function"
    },
    {
      "inputs": [],
      "name": "forecastCounter",
      "outputs": [
        {
          "internalType": "uint256",
          "name": "",
          "type": "uint256"
        }
      ],
      "stateMutability": "view",
      "type": "function"
    },
    {
      "inputs": [
        {
          "internalType": "uint256",
          "name": "",
          "type": "uint256"
        }
      ],
      "name": "forecasts",
      "outputs": [
        {
          "internalType": "address",
          "name": "forecaster",
          "type": "address"
        },
        {
          "internalType": "string",
          "name": "storeId",
          "type": "string"
        },
        {
          "internalType": "string",
          "name": "city",
          "type": "string"
        },
        {
          "internalType": "uint256",
          "name": "timestamp",
          "type": "uint256"
        },
        {
          "internalType": "uint256",
          "name": "predictionPeriodStart",
          "type": "uint256"
        },
        {
          "internalType": "uint256",
          "name": "predictionPeriodEnd",
          "type": "uint256"
        },
        {
          "internalType": "string",
          "name": "dataHash",
          "type": "string"
        },
        {
          "internalType": "uint256",
          "name": "accuracy",
          "type": "uint256"
        },
        {
          "internalType": "bool",
          "name": "isVerified",
          "type": "bool"
        },
        {
          "internalType": "bool",
          "name": "accuracyCalculated",
          "type": "bool"
        }
      ],
      "stateMutability": "view",
      "type": "function"
    },
    {
      "inputs": [
        {
          "internalType": "uint256",
          "name": "forecastId",
          "type": "uint256"
        }
      ],
      "name": "getForecast",
      "outputs": [
        {
          "internalType": "address",
          "name": "forecaster",
          "type": "address"
        },
        {
          "internalType": "string",
          "name": "storeId",
          "type": "string"
        },
        {
          "internalType": "string",
          "name": "city",
          "type": "string"
        },
        {
          "internalType": "uint256",
          "name": "timestamp",
          "type": "uint256"
        },
        {
          "internalType": "uint256",
          "name": "predictionPeriodStart",
          "type": "uint256"
        },
        {
          "internalType": "uint256",
          "name": "predictionPeriodEnd",
          "type": "uint256"
        },
        {
          "internalType": "string",
          "name": "dataHash",
          "type": "string"
        },
        {
          "internalType": "uint256[]",
          "name": "predictedSales",
          "type": "uint256[]"
        },
        {
          "internalType": "uint256[]",
          "name": "actualSales",
          "type": "uint256[]"
        },
        {
          "internalType": "uint256",
          "name": "accuracy",
          "type": "uint256"
        },
        {
          "internalType": "bool",
          "name": "isVerified",
          "type": "bool"
        },
        {
          "internalType": "bool",
          "name": "accuracyCalculated",
          "type": "bool"
        }
      ],
      "stateMutability": "view",
      "type": "function"
    },
    {
      "inputs": [
        {
          "internalType": "string",
          "name": "storeId",
          "type": "string"
        }
      ],
      "name": "getStore",
      "outputs": [
        {
          "internalType": "string",
          "name": "name",
          "type": "string"
        },
        {
          "internalType": "string",
          "name": "location",
          "type": "string"
        },
        {
          "internalType": "address",
          "name": "owner",
          "type": "address"
        },
        {
          "internalType": "bool",
          "name": "isActive",
          "type": "bool"
        },
        {
          "internalType": "uint256",
          "name": "totalForecasts",
          "type": "uint256"
        },
        {
          "internalType": "uint256",
          "name": "averageAccuracy",
          "type": "uint256"
        }
      ],
      "stateMutability": "view",
      "type": "function"
    },
    {
      "inputs": [
        {
          "internalType": "string",
          "name": "storeId",
          "type": "string"
        }
      ],
      "name": "getStoreForecasts",
      "outputs": [
        {
          "internalType": "uint256[]",
          "name": "",
          "type": "uint256[]"
        }
      ],
      "stateMutability": "view",
      "type": "function"
    },
    {
      "inputs": [
        {
          "internalType": "address",
          "name": "user",
          "type": "address"
        }
      ],
      "name": "getUserForecasts",
      "outputs": [
        {
          "internalType": "uint256[]",
          "name": "",
          "type": "uint256[]"
        }
      ],
      "stateMutability": "view",
      "type": "function"
    },
    {
      "inputs": [
        {
          "internalType": "uint256",
          "name": "forecastId",
          "type": "uint256"
        }
      ],
      "name": "isEligibleForReward",
      "outputs": [
        {
          "internalType": "bool",
          "name": "",
          "type": "bool"
        }
      ],
      "stateMutability": "view",
      "type": "function"
    },
    {
      "inputs": [],
      "name": "owner",
      "outputs": [
        {
          "internalType": "address",
          "name": "",
          "type": "address"
        }
      ],
      "stateMutability": "view",
      "type": "function"
    },
    {
      "inputs": [],
      "name": "pause",
      "outputs": [],
      "stateMutability": "nonpayable",
      "type": "function"
    },
    {
      "inputs": [],
      "name": "paused",
      "outputs": [
        {
          "internalType": "bool",
          "name": "",
          "type": "bool"
        }
      ],
      "stateMutability": "view",
      "type": "function"
    },
    {
      "inputs": [
        {
          "internalType": "string",
          "name": "storeId",
          "type": "string"
        },
        {
          "internalType": "string",
          "name": "name",
          "type": "string"
        },
        {
          "internalType": "string",
          "name": "location",
          "type": "string"
        },
        {
          "internalType": "address",
          "name": "storeOwner",
          "type": "address"
        }
      ],
      "name": "registerStore",
      "outputs": [],
      "stateMutability": "nonpayable",
      "type": "function"
    },
    {
      "inputs": [
        {
          "internalType": "address",
          "name": "provider",
          "type": "address"
        }
      ],
      "name": "removeDataProvider",
      "outputs": [],
      "stateMutability": "nonpayable",
      "type": "function"
    },
    {
      "inputs": [],
      "name": "renounceOwnership",
      "outputs": [],
      "stateMutability": "nonpayable",
      "type": "function"
    },
    {
      "inputs": [
        {
          "internalType": "string",
          "name": "",
          "type": "string"
        },
        {
          "internalType": "uint256",
          "name": "",
          "type": "uint256"
        }
      ],
      "name": "storeForecasts",
      "outputs": [
        {
          "internalType": "uint256",
          "name": "",
          "type": "uint256"
        }
      ],
      "stateMutability": "view",
      "type": "function"
    },
    {
      "inputs": [
        {
          "internalType": "string",
          "name": "",
          "type": "string"
        }
      ],
      "name": "stores",
      "outputs": [
        {
          "internalType": "string",
          "name": "name",
          "type": "string"
        },
        {
          "internalType": "string",
          "name": "location",
          "type": "string"
        },
        {
          "internalType": "address",
          "name": "owner",
          "type": "address"
        },
        {
          "internalType": "bool",
          "name": "isActive",
          "type": "bool"
        },
        {
          "internalType": "uint256",
          "name": "totalForecasts",
          "type": "uint256"
        },
        {
          "internalType": "uint256",
          "name": "averageAccuracy",
          "type": "uint256"
        }
      ],
      "stateMutability": "view",
      "type": "function"
    },
    {
      "inputs": [
        {
          "internalType": "uint256",
          "name": "forecastId",
          "type": "uint256"
        },
        {
          "internalType": "uint256[]",
          "name": "actualSales",
          "type": "uint256[]"
        }
      ],
      "name": "submitActualData",
      "outputs": [],
      "stateMutability": "nonpayable",
      "type": "function"
    },
    {
      "inputs": [
        {
          "internalType": "string",
          "name": "storeId",
          "type": "string"
        },
        {
          "internalType": "string",
          "name": "city",
          "type": "string"
        },
        {
          "internalType": "uint256",
          "name": "predictionPeriodStart",
          "type": "uint256"
        },
        {
          "internalType": "uint256",
          "name": "predictionPeriodEnd",
          "type": "uint256"
        },
        {
          "internalType": "string",
          "name": "dataHash",
          "type": "string"
        },
        {
          "internalType": "uint256[]",
          "name": "predictedSales",
          "type": "uint256[]"
        }
      ],
      "name": "submitForecast",
      "outputs": [
        {
          "internalType": "uint256",
          "name": "",
          "type": "uint256"
        }
      ],
      "stateMutability": "nonpayable",
      "type": "function"
    },
    {
      "inputs": [
        {
          "internalType": "address",
          "name": "newOwner",
          "type": "address"
        }
      ],
      "name": "transferOwnership",
      "outputs": [],
      "stateMutability": "nonpayable",
      "type": "function"
    },
    {
      "inputs": [],
      "name": "unpause",
      "outputs": [],
      "stateMutability": "nonpayable",
      "type": "function"
    },
    {
      "inputs": [
        {
          "internalType": "address",
          "name": "",
          "type": "address"
        },
        {
          "internalType": "uint256",
          "name": "",
          "type": "uint256"
        }
      ],
      "name": "userForecasts",
      "outputs": [
        {
          "internalType": "uint256",
          "name": "",
          "type": "uint256"
        }
      ],
      "stateMutability": "view",
      "type": "function"
    }
  ],
  "bytecode": "0x60806040523480156200001157600080fd5b5060405162002a2338038062002a238339810160408190526200003491620000c7565b806001600160a01b0381166200006457604051631e4fbdf760e01b81526000600482015260240160405180910390fd5b6200006f8162000077565b5050620000f9565b600080546001600160a01b038381166001600160a01b0319831681178455604051919092169283917f8be0079c531659141344cd1fd0a4f28419497f9722a3daafe3b4186f6b6457e09190a35050565b600060208284031215620000da57600080fd5b81516001600160a01b0381168114620000f257600080fd5b9392505050565b61291a80620001096000396000f3fe608060405234801561001057600080fd5b50600436106101735760003560e01c80638ee67804116100de578063dbd8951b11610097578063f5755c3411610071578063f5755c3414610347578063f9244dd714610372578063f979531f14610385578063ffc312151461039857600080fd5b8063dbd8951b146102e6578063ed2312971461030f578063f2fde38b1461033457600080fd5b80638ee6780414610288578063a68353fb1461029b578063b0eb1a5e146102a4578063c65d885e146102b7578063cbd5cf77146102ca578063d35ae9b2146102dd57600080fd5b80636423d501116101305780636423d50114610214578063715018a614610227578063780aac031461022f5780638456cb5914610252578063868fe4c41461025a5780638da5cb5b1461026d57600080fd5b80632e6c2d33146101785780633f4ba83a146101a15780634a0b4ce4146101ab57806350910ad6146101ce5780635bf08d23146101e15780635c975abb14610202575b600080fd5b61018b61018636600461213e565b6103ab565b60405161019891906121b6565b60405180910390f35b6101a961041b565b005b6101be6101b93660046121c9565b61042d565b6040519015158152602001610198565b6101a96101dc3660046121fe565b61072c565b6101f46101ef366004612219565b610780565b604051908152602001610198565b600054600160a01b900460ff166101be565b6101a96102223660046122c3565b6107b1565b6101a9610b3e565b6101be61023d3660046121fe565b60066020526000908152604090205460ff1681565b6101a9610b50565b6101a961026836600461213e565b610b60565b6000546040516001600160a01b039091168152602001610198565b6101a961029636600461230a565b610ba9565b6101f460055481565b6101a96102b236600461213e565b610d94565b6101f46102c53660046123a3565b610dae565b61018b6102d83660046121fe565b6111cf565b6101f4611f4081565b6102f96102f43660046121c9565b611239565b6040516101989a999897969594939291906124b2565b61032261031d36600461213e565b611430565b60405161019896959493929190612538565b6101a96103423660046121fe565b61158f565b61035a6103553660046121c9565b6115cd565b6040516101989c9b9a9998979695949392919061258c565b6101a96103803660046121fe565b61195e565b6101f4610393366004612647565b6119af565b6103226103a636600461213e565b6119da565b60606004826040516103bd919061268c565b908152604080519182900360209081018320805480830285018301909352828452919083018282801561040f57602002820191906000526020600020905b8154815260200190600101908083116103fb575b50505050509050919050565b610423611ba8565b61042b611bd5565b565b60008181526001602081815260408084208151610180810190925280546001600160a01b031682529283018054859492938401919061046b906126a8565b80601f0160208091040260200160405190810160405280929190818152602001828054610497906126a8565b80156104e45780601f106104b9576101008083540402835291602001916104e4565b820191906000526020600020905b8154815290600101906020018083116104c757829003601f168201915b505050505081526020016002820180546104fd906126a8565b80601f0160208091040260200160405190810160405280929190818152602001828054610529906126a8565b80156105765780601f1061054b57610100808354040283529160200191610576565b820191906000526020600020905b81548152906001019060200180831161055957829003601f168201915b505050505081526020016003820154815260200160048201548152602001600582015481526020016006820180546105ad906126a8565b80601f01602080910402602001604051908101604052809291908181526020018280546105d9906126a8565b80156106265780601f106105fb57610100808354040283529160200191610626565b820191906000526020600020905b81548152906001019060200180831161060957829003601f168201915b505050505081526020016007820180548060200260200160405190810160405280929190818152602001828054801561067e57602002820191906000526020600020905b81548152602001906001019080831161066a575b50505050508152602001600882018054806020026020016040519081016040528092919081815260200182805480156106d657602002820191906000526020600020905b8154815260200190600101908083116106c2575b505050918352505060098201546020820152600a9091015460ff8082161515604084015261010090910416151560609091015261016081015190915080156107255750611f4081610120015110155b9392505050565b610734611ba8565b6001600160a01b038116600081815260066020526040808220805460ff19166001179055517fc2c86837bccb53b419b86bf9073f8c38739d282cd7853f2766cbfd98c26b9a209190a250565b6003602052816000526040600020818154811061079c57600080fd5b90600052602060002001600091509150505481565b3360009081526006602052604090205460ff16806107d957506000546001600160a01b031633145b6108365760405162461bcd60e51b8152602060048201526024808201527f4e6f7420617574686f72697a656420746f207375626d69742061637475616c206044820152636461746160e01b60648201526084015b60405180910390fd5b600082815260016020526040902080546001600160a01b031661089b5760405162461bcd60e51b815260206004820152601760248201527f466f72656361737420646f6573206e6f74206578697374000000000000000000604482015260640161082d565b600a810154610100900460ff16156108f55760405162461bcd60e51b815260206004820152601b60248201527f416363757261637920616c72656164792063616c63756c617465640000000000604482015260640161082d565b806005015442116109485760405162461bcd60e51b815260206004820152601b60248201527f50726564696374696f6e20706572696f64206e6f7420656e6465640000000000604482015260640161082d565b600781015482511461099c5760405162461bcd60e51b815260206004820152601a60248201527f53616c65732064617461206c656e677468206d69736d61746368000000000000604482015260640161082d565b81516109b19060088301906020850190612027565b50600a8101805460ff1916600117905560078101805460408051602080840282018101909252828152600093610a20939192909190830182828015610a1557602002820191906000526020600020905b815481526020019060010190808311610a01575b505050505084611c2a565b60098301819055600a8301805461ff001916610100179055600183018054919250610ad191610a4e906126a8565b80601f0160208091040260200160405190810160405280929190818152602001828054610a7a906126a8565b8015610ac75780601f10610a9c57610100808354040283529160200191610ac7565b820191906000526020600020905b815481529060010190602001808311610aaa57829003601f168201915b5050505050611e11565b604051339085907f8f0828e29b078031fc860679a31349cafe27ff689f81b098ba3c1871d4d8437690600090a3837f5ee1c4f929a89730eeea92d50d09848daa6daf1220a59c80b1060d4ec44df08b82604051610b3091815260200190565b60405180910390a250505050565b610b46611ba8565b61042b6000611f3f565b610b58611ba8565b61042b611f8f565b610b68611ba8565b6000600282604051610b7a919061268c565b9081526040519081900360200190206002018054911515600160a01b0260ff60a01b1990921691909117905550565b610bb1611ba8565b6000845111610bfd5760405162461bcd60e51b815260206004820152601860248201527753746f72652049442063616e6e6f7420626520656d70747960401b604482015260640161082d565b60006001600160a01b0316600285604051610c18919061268c565b908152604051908190036020019020600201546001600160a01b031614610c815760405162461bcd60e51b815260206004820152601860248201527f53746f726520616c726561647920726567697374657265640000000000000000604482015260640161082d565b6040518060c00160405280848152602001838152602001826001600160a01b03168152602001600115158152602001600081526020016000815250600285604051610ccc919061268c565b90815260405190819003602001902081518190610ce99082612731565b5060208201516001820190610cfe9082612731565b5060408281015160028301805460608601511515600160a01b026001600160a81b03199091166001600160a01b03909316929092179190911790556080830151600383015560a09092015160049091015551610d5b90859061268c565b60405180910390207f27f944dbf23305f3c2c09585a1d95ecf1bfb0da85f40844e8871202c58e481928483604051610b309291906127f1565b610d9c611ba8565b6001600282604051610b7a919061268c565b6000610db8611fd2565b6000875111610e045760405162461bcd60e51b815260206004820152601860248201527753746f72652049442063616e6e6f7420626520656d70747960401b604482015260640161082d565b600287604051610e14919061268c565b9081526040519081900360200190206002015460ff600160a01b90910416610e745760405162461bcd60e51b815260206004820152601360248201527253746f7265206973206e6f742061637469766560681b604482015260640161082d565b838510610ec35760405162461bcd60e51b815260206004820152601960248201527f496e76616c69642070726564696374696f6e20706572696f6400000000000000604482015260640161082d565b6000825111610f145760405162461bcd60e51b815260206004820152601f60248201527f5072656469637465642073616c65732063616e6e6f7420626520656d70747900604482015260640161082d565b428511610f735760405162461bcd60e51b815260206004820152602760248201527f50726564696374696f6e20706572696f64206d75737420626520696e207468656044820152662066757475726560c81b606482015260840161082d565b60058054906000610f8383612831565b9091555050600554604080516101808101825233815260208082018b81528284018b9052426060840152608083018a905260a0830189905260c0830188905260e0830187905283516000808252818401865261010085019190915261012084018190526101408401819052610160840181905285815260019283905293909320825181546001600160a01b0319166001600160a01b039091161781559251919291908201906110329082612731565b50604082015160028201906110479082612731565b50606082015160038201556080820151600482015560a0820151600582015560c0820151600682019061107a9082612731565b5060e08201518051611096916007840191602090910190612027565b5061010082015180516110b3916008840191602090910190612027565b506101208201516009820155610140820151600a90910180546101609093015115156101000261ff00199215159290921661ffff19909316929092171790553360009081526003602090815260408083208054600181018255908452919092200182905551600490611126908a9061268c565b90815260405190819003602090810182208054600181018255600091825291902001829055600290611159908a9061268c565b908152604051908190036020019020600301805490600061117983612831565b9190505550336001600160a01b0316817fea0ec51cf43b0c95e925e847a244eb8354733b5e615c283e2ebb3c18055e7ade8a89896040516111bc9392919061284a565b60405180910390a3979650505050505050565b6001600160a01b03811660009081526003602090815260409182902080548351818402810184019094528084526060939283018282801561040f57602002820191906000526020600020908154815260200190600101908083116103fb5750505050509050919050565b6001602081905260009182526040909120805491810180546001600160a01b0390931692611266906126a8565b80601f0160208091040260200160405190810160405280929190818152602001828054611292906126a8565b80156112df5780601f106112b4576101008083540402835291602001916112df565b820191906000526020600020905b8154815290600101906020018083116112c257829003601f168201915b5050505050908060020180546112f4906126a8565b80601f0160208091040260200160405190810160405280929190818152602001828054611320906126a8565b801561136d5780601f106113425761010080835404028352916020019161136d565b820191906000526020600020905b81548152906001019060200180831161135057829003601f168201915b505050505090806003015490806004015490806005015490806006018054611394906126a8565b80601f01602080910402602001604051908101604052809291908181526020018280546113c0906126a8565b801561140d5780601f106113e25761010080835404028352916020019161140d565b820191906000526020600020905b8154815290600101906020018083116113f057829003601f168201915b505050506009830154600a9093015491929160ff8082169250610100909104168a565b8051602081830181018051600282529282019190930120915280548190611456906126a8565b80601f0160208091040260200160405190810160405280929190818152602001828054611482906126a8565b80156114cf5780601f106114a4576101008083540402835291602001916114cf565b820191906000526020600020905b8154815290600101906020018083116114b257829003601f168201915b5050505050908060010180546114e4906126a8565b80601f0160208091040260200160405190810160405280929190818152602001828054611510906126a8565b801561155d5780601f106115325761010080835404028352916020019161155d565b820191906000526020600020905b81548152906001019060200180831161154057829003601f168201915b505050506002830154600384015460049094015492936001600160a01b03821693600160a01b90920460ff1692509086565b611597611ba8565b6001600160a01b0381166115c157604051631e4fbdf760e01b81526000600482015260240161082d565b6115ca81611f3f565b50565b600060608060008060006060806060600080600080600160008f8152602001908152602001600020604051806101800160405290816000820160009054906101000a90046001600160a01b03166001600160a01b03166001600160a01b03168152602001600182018054611640906126a8565b80601f016020809104026020016040519081016040528092919081815260200182805461166c906126a8565b80156116b95780601f1061168e576101008083540402835291602001916116b9565b820191906000526020600020905b81548152906001019060200180831161169c57829003601f168201915b505050505081526020016002820180546116d2906126a8565b80601f01602080910402602001604051908101604052809291908181526020018280546116fe906126a8565b801561174b5780601f106117205761010080835404028352916020019161174b565b820191906000526020600020905b81548152906001019060200180831161172e57829003601f168201915b50505050508152602001600382015481526020016004820154815260200160058201548152602001600682018054611782906126a8565b80601f01602080910402602001604051908101604052809291908181526020018280546117ae906126a8565b80156117fb5780601f106117d0576101008083540402835291602001916117fb565b820191906000526020600020905b8154815290600101906020018083116117de57829003601f168201915b505050505081526020016007820180548060200260200160405190810160405280929190818152602001828054801561185357602002820191906000526020600020905b81548152602001906001019080831161183f575b50505050508152602001600882018054806020026020016040519081016040528092919081815260200182805480156118ab57602002820191906000526020600020905b815481526020019060010190808311611897575b5050505050815260200160098201548152602001600a820160009054906101000a900460ff16151515158152602001600a820160019054906101000a900460ff1615151515815250509050806000015181602001518260400151836060015184608001518560a001518660c001518760e001518861010001518961012001518a61014001518b61016001519c509c509c509c509c509c509c509c509c509c509c509c505091939597999b5091939597999b565b611966611ba8565b6001600160a01b038116600081815260066020526040808220805460ff19169055517f033dfbce3ad1803151dcc8f4ca7cf22c5745f11a6d3931072ce7a9c3016d5e6c9190a250565b8151602081840181018051600482529282019185019190912091905280548290811061079c57600080fd5b60608060008060008060006002886040516119f5919061268c565b90815260200160405180910390206040518060c0016040529081600082018054611a1e906126a8565b80601f0160208091040260200160405190810160405280929190818152602001828054611a4a906126a8565b8015611a975780601f10611a6c57610100808354040283529160200191611a97565b820191906000526020600020905b815481529060010190602001808311611a7a57829003601f168201915b50505050508152602001600182018054611ab0906126a8565b80601f0160208091040260200160405190810160405280929190818152602001828054611adc906126a8565b8015611b295780601f10611afe57610100808354040283529160200191611b29565b820191906000526020600020905b815481529060010190602001808311611b0c57829003601f168201915b505050918352505060028201546001600160a01b038116602080840191909152600160a01b90910460ff161515604080840191909152600384015460608085019190915260049094015460809384015284519185015190850151938501519285015160a090950151919d909c50929a5090985091965090945092505050565b6000546001600160a01b0316331461042b5760405163118cdaa760e01b815233600482015260240161082d565b611bdd611ffd565b6000805460ff60a01b191690557f5db9ee0a495bf2e6ff9c91a7834c1ba4fdd244a5e8aa4e537bd38aeae4b073aa335b6040516001600160a01b03909116815260200160405180910390a1565b60008151835114611c755760405162461bcd60e51b8152602060048201526015602482015274082e4e4c2f240d8cadccee8d040dad2e6dac2e8c6d605b1b604482015260640161082d565b60008060005b8551811015611dc3576000858281518110611c9857611c9861286f565b60200260200101511115611db1576000868281518110611cba57611cba61286f565b6020026020010151868381518110611cd457611cd461286f565b602002602001015111611d2457858281518110611cf357611cf361286f565b6020026020010151878381518110611d0d57611d0d61286f565b6020026020010151611d1f9190612885565b611d62565b868281518110611d3657611d3661286f565b6020026020010151868381518110611d5057611d5061286f565b6020026020010151611d629190612885565b9050858281518110611d7657611d7661286f565b602002602001015181612710611d8c9190612898565b611d9691906128af565b611da090856128d1565b935082611dac81612831565b935050505b80611dbb81612831565b915050611c7b565b5080600003611dd757600092505050611e0b565b6000611de382846128af565b905060006127108211611e0157611dfc82612710612885565b611e04565b60005b9450505050505b92915050565b6000600482604051611e23919061268c565b9081526040805191829003602090810183208054808302850183019093528284529190830182828015611e7557602002820191906000526020600020905b815481526020019060010190808311611e61575b5050505050905060008060005b8351811015611f0457600060016000868481518110611ea357611ea361286f565b60200260200101518152602001908152602001600020905080600a0160019054906101000a900460ff1615611ef1576009810154611ee190856128d1565b935082611eed81612831565b9350505b5080611efc81612831565b915050611e82565b508015611f3957611f1581836128af565b600285604051611f25919061268c565b908152604051908190036020019020600401555b50505050565b600080546001600160a01b038381166001600160a01b0319831681178455604051919092169283917f8be0079c531659141344cd1fd0a4f28419497f9722a3daafe3b4186f6b6457e09190a35050565b611f97611fd2565b6000805460ff60a01b1916600160a01b1790557f62e78cea01bee320cd4e420270b5ea74000d11b0c9f74754ebdbfc544b05a258611c0d3390565b600054600160a01b900460ff161561042b5760405163d93c066560e01b815260040160405180910390fd5b600054600160a01b900460ff1661042b57604051638dfc202b60e01b815260040160405180910390fd5b828054828255906000526020600020908101928215612062579160200282015b82811115612062578251825591602001919060010190612047565b5061206e929150612072565b5090565b5b8082111561206e5760008155600101612073565b634e487b7160e01b600052604160045260246000fd5b604051601f8201601f1916810167ffffffffffffffff811182821017156120c6576120c6612087565b604052919050565b600082601f8301126120df57600080fd5b813567ffffffffffffffff8111156120f9576120f9612087565b61210c601f8201601f191660200161209d565b81815284602083860101111561212157600080fd5b816020850160208301376000918101602001919091529392505050565b60006020828403121561215057600080fd5b813567ffffffffffffffff81111561216757600080fd5b612173848285016120ce565b949350505050565b600081518084526020808501945080840160005b838110156121ab5781518752958201959082019060010161218f565b509495945050505050565b602081526000610725602083018461217b565b6000602082840312156121db57600080fd5b5035919050565b80356001600160a01b03811681146121f957600080fd5b919050565b60006020828403121561221057600080fd5b610725826121e2565b6000806040838503121561222c57600080fd5b612235836121e2565b946020939093013593505050565b600082601f83011261225457600080fd5b8135602067ffffffffffffffff82111561227057612270612087565b8160051b61227f82820161209d565b928352848101820192828101908785111561229957600080fd5b83870192505b848310156122b85782358252918301919083019061229f565b979650505050505050565b600080604083850312156122d657600080fd5b82359150602083013567ffffffffffffffff8111156122f457600080fd5b61230085828601612243565b9150509250929050565b6000806000806080858703121561232057600080fd5b843567ffffffffffffffff8082111561233857600080fd5b612344888389016120ce565b9550602087013591508082111561235a57600080fd5b612366888389016120ce565b9450604087013591508082111561237c57600080fd5b50612389878288016120ce565b925050612398606086016121e2565b905092959194509250565b60008060008060008060c087890312156123bc57600080fd5b863567ffffffffffffffff808211156123d457600080fd5b6123e08a838b016120ce565b975060208901359150808211156123f657600080fd5b6124028a838b016120ce565b96506040890135955060608901359450608089013591508082111561242657600080fd5b6124328a838b016120ce565b935060a089013591508082111561244857600080fd5b5061245589828a01612243565b9150509295509295509295565b60005b8381101561247d578181015183820152602001612465565b50506000910152565b6000815180845261249e816020860160208601612462565b601f01601f19169290920160200192915050565b6001600160a01b038b168152610140602082018190526000906124d78382018d612486565b905082810360408401526124eb818c612486565b90508960608401528860808401528760a084015282810360c08401526125118188612486565b60e08401969096525050911515610100830152151561012090910152979650505050505050565b60c08152600061254b60c0830189612486565b828103602084015261255d8189612486565b6001600160a01b0397909716604084015250509215156060840152608083019190915260a09091015292915050565b6001600160a01b038d168152610180602082018190526000906125b18382018f612486565b905082810360408401526125c5818e612486565b90508b60608401528a60808401528960a084015282810360c08401526125eb818a612486565b905082810360e08401526125ff818961217b565b9050828103610100840152612614818861217b565b9150508461012083015261262d61014083018515159052565b8215156101608301529d9c50505050505050505050505050565b6000806040838503121561265a57600080fd5b823567ffffffffffffffff81111561267157600080fd5b61267d858286016120ce565b95602094909401359450505050565b6000825161269e818460208701612462565b9190910192915050565b600181811c908216806126bc57607f821691505b6020821081036126dc57634e487b7160e01b600052602260045260246000fd5b50919050565b601f82111561272c57600081815260208120601f850160051c810160208610156127095750805b601f850160051c820191505b8181101561272857828155600101612715565b5050505b505050565b815167ffffffffffffffff81111561274b5761274b612087565b61275f8161275984546126a8565b846126e2565b602080601f831160018114612794576000841561277c5750858301515b600019600386901b1c1916600185901b178555612728565b600085815260208120601f198616915b828110156127c3578886015182559484019460019091019084016127a4565b50858210156127e15787850151600019600388901b60f8161c191681555b5050505050600190811b01905550565b6040815260006128046040830185612486565b905060018060a01b03831660208301529392505050565b634e487b7160e01b600052601160045260246000fd5b6000600182016128435761284361281b565b5060010190565b60608152600061285d6060830186612486565b60208301949094525060400152919050565b634e487b7160e01b600052603260045260246000fd5b81810381811115611e0b57611e0b61281b565b8082028115828204841417611e0b57611e0b61281b565b6000826128cc57634e487b7160e01b600052601260045260246000fd5b500490565b80820180821115611e0b57611e0b61281b56fea264697066735822122087084f15094b27b06418913993c9fe9c22d4ae1f80eec1445476bdda149b281864736f6c63430008140033",
  "linkReferences": {},
  "deployedLinkReferences": {}
}