{
  "_format": "hh-sol-artifact-1",
  "contractName": "ForecastData",
  "sourceName": "contracts/ForecastData.sol",
  "abi": [
    {
      "inputs": [
        {
          "internalType": "address",
          "name": "initialOwner",
          "type": "address"
        }
      ],
      "stateMutability": "nonpayable",
      "type": "constructor"
    },
    {
      "inputs": [],
      "name": "EnforcedPause",
      "type": "error"
    },
    {
      "inputs": [],
      "name": "ExpectedPause",
      "type": "error"
    },
    {
      "inputs": [
        {
          "internalType": "address",
          "name": "owner",
          "type": "address"
        }
      ],
      "name": "OwnableInvalidOwner",
      "type": "error"
    },
    {
      "inputs": [
        {
          "internalType": "address",
          "name": "account",
          "type": "address"
        }
      ],
      "name": "OwnableUnauthorizedAccount",
      "type": "error"
    },
    {
      "anonymous": false,
      "inputs": [
        {
          "indexed": true,
          "internalType": "uint256",
          "name": "forecastId",
          "type": "uint256"
        },
        {
          "indexed": false,
          "internalType": "uint256",
          "name": "accuracy",
          "type": "uint256"
        }
      ],
      "name": "AccuracyCalculated",
      "type": "event"
    },
    {
      "anonymous": false,
      "inputs": [
        {
          "indexed": true,
          "internalType": "uint256",
          "name": "forecastId",
          "type": "uint256"
        },
        {
          "indexed": true,
          "internalType": "address",
          "name": "dataProvider",
          "type": "address"
        }
      ],
      "name": "ActualDataSubmitted",
      "type": "event"
    },
    {
      "anonymous": false,
      "inputs": [
        {
          "indexed": true,
          "internalType": "address",
          "name": "provider",
          "type": "address"
        }
      ],
      "name": "DataProviderAdded",
      "type": "event"
    },
    {
      "anonymous": false,
      "inputs": [
        {
          "indexed": true,
          "internalType": "address",
          "name": "provider",
          "type": "address"
        }
      ],
      "name": "DataProviderRemoved",
      "type": "event"
    },
    {
      "anonymous": false,
      "inputs": [
        {
          "indexed": true,
          "internalType": "uint256",
          "name": "forecastId",
          "type": "uint256"
        },
        {
          "indexed": true,
          "internalType": "address",
          "name": "forecaster",
          "type": "address"
        },
        {
          "indexed": false,
          "internalType": "string",
          "name": "storeId",
          "type": "string"
        },
        {
          "indexed": false,
          "internalType": "uint256",
          "name": "predictionPeriodStart",
          "type": "uint256"
        },
        {
          "indexed": false,
          "internalType": "uint256",
          "name": "predictionPeriodEnd",
          "type": "uint256"
        }
      ],
      "name": "ForecastSubmitted",
      "type": "event"
    },
    {
      "anonymous": false,
      "inputs": [
        {
          "indexed": true,
          "internalType": "address",
          "name": "previousOwner",
          "type": "address"
        },
        {
          "indexed": true,
          "internalType": "address",
          "name": "newOwner",
          "type": "address"
        }
      ],
      "name": "OwnershipTransferred",
      "type": "event"
    },
    {
      "anonymous": false,
      "inputs": [
        {
          "indexed": false,
          "internalType": "address",
          "name": "account",
          "type": "address"
        }
      ],
      "name": "Paused",
      "type": "event"
    },
    {
      "anonymous": false,
      "inputs": [
        {
          "indexed": true,
          "internalType": "string",
          "name": "storeId",
          "type": "string"
        },
        {
          "indexed": false,
          "internalType": "string",
          "name": "name",
          "type": "string"
        },
        {
          "indexed": false,
          "internalType": "address",
          "name": "owner",
          "type": "address"
        }
      ],
      "name": "StoreRegistered",
      "type": "event"
    },
    {
      "anonymous": false,
      "inputs": [
        {
          "indexed": false,
          "internalType": "address",
          "name": "account",
          "type": "address"
        }
      ],
      "name": "Unpaused",
      "type": "event"
    },
    {
      "inputs": [],
      "name": "MIN_ACCURACY_FOR_REWARD",
      "outputs": [
        {
          "internalType": "uint256",
          "name": "",
          "type": "uint256"
        }
      ],
      "stateMutability": "view",
      "type": "function"
    },
    {
      "inputs": [
        {
          "internalType": "string",
          "name": "storeId",
          "type": "string"
        }
      ],
      "name": "activateStore",
      "outputs": [],
      "stateMutability": "nonpayable",
      "type": "function"
    },
    {
      "inputs": [
        {
          "internalType": "address",
          "name": "provider",
          "type": "address"
        }
      ],
      "name": "addDataProvider",
      "outputs": [],
      "stateMutability": "nonpayable",
      "type": "function"
    },
    {
      "inputs": [
        {
          "internalType": "address",
          "name": "",
          "type": "address"
        }
      ],
      "name": "dataProviders",
      "outputs": [
        {
          "internalType": "bool",
          "name": "",
          "type": "bool"
        }
      ],
      "stateMutability": "view",
      "type": "function"
    },
    {
      "inputs": [
        {
          "internalType": "string",
          "name": "storeId",
          "type": "string"
        }
      ],
      "name": "deactivateStore",
      "outputs": [],
      "stateMutability": "nonpayable",
      "type": "function"
    },
    {
      "inputs": [],
      "name": "forecastCounter",
      "outputs": [
        {
          "internalType": "uint256",
          "name": "",
          "type": "uint256"
        }
      ],
      "stateMutability": "view",
      "type": "function"
    },
    {
      "inputs": [
        {
          "internalType": "uint256",
          "name": "",
          "type": "uint256"
        }
      ],
      "name": "forecasts",
      "outputs": [
        {
          "internalType": "address",
          "name": "forecaster",
          "type": "address"
        },
        {
          "internalType": "string",
          "name": "storeId",
          "type": "string"
        },
        {
          "internalType": "string",
          "name": "city",
          "type": "string"
        },
        {
          "internalType": "uint256",
          "name": "timestamp",
          "type": "uint256"
        },
        {
          "internalType": "uint256",
          "name": "predictionPeriodStart",
          "type": "uint256"
        },
        {
          "internalType": "uint256",
          "name": "predictionPeriodEnd",
          "type": "uint256"
        },
        {
          "internalType": "string",
          "name": "dataHash",
          "type": "string"
        },
        {
          "internalType": "uint256",
          "name": "accuracy",
          "type": "uint256"
        },
        {
          "internalType": "bool",
          "name": "isVerified",
          "type": "bool"
        },
        {
          "internalType": "bool",
          "name": "accuracyCalculated",
          "type": "bool"
        }
      ],
      "stateMutability": "view",
      "type": "function"
    },
    {
      "inputs": [
        {
          "internalType": "uint256",
          "name": "forecastId",
          "type": "uint256"
        }
      ],
      "name": "getForecast",
      "outputs": [
        {
          "internalType": "address",
          "name": "forecaster",
          "type": "address"
        },
        {
          "internalType": "string",
          "name": "storeId",
          "type": "string"
        },
        {
          "internalType": "string",
          "name": "city",
          "type": "string"
        },
        {
          "internalType": "uint256",
          "name": "timestamp",
          "type": "uint256"
        },
        {
          "internalType": "uint256",
          "name": "predictionPeriodStart",
          "type": "uint256"
        },
        {
          "internalType": "uint256",
          "name": "predictionPeriodEnd",
          "type": "uint256"
        },
        {
          "internalType": "string",
          "name": "dataHash",
          "type": "string"
        },
        {
          "internalType": "uint256[]",
          "name": "predictedSales",
          "type": "uint256[]"
        },
        {
          "internalType": "uint256[]",
          "name": "actualSales",
          "type": "uint256[]"
        },
        {
          "internalType": "uint256",
          "name": "accuracy",
          "type": "uint256"
        },
        {
          "internalType": "bool",
          "name": "isVerified",
          "type": "bool"
        },
        {
          "internalType": "bool",
          "name": "accuracyCalculated",
          "type": "bool"
        }
      ],
      "stateMutability": "view",
      "type": "function"
    },
    {
      "inputs": [
        {
          "internalType": "string",
          "name": "storeId",
          "type": "string"
        }
      ],
      "name": "getStore",
      "outputs": [
        {
          "internalType": "string",
          "name": "name",
          "type": "string"
        },
        {
          "internalType": "string",
          "name": "location",
          "type": "string"
        },
        {
          "internalType": "address",
          "name": "owner",
          "type": "address"
        },
        {
          "internalType": "bool",
          "name": "isActive",
          "type": "bool"
        },
        {
          "internalType": "uint256",
          "name": "totalForecasts",
          "type": "uint256"
        },
        {
          "internalType": "uint256",
          "name": "averageAccuracy",
          "type": "uint256"
        }
      ],
      "stateMutability": "view",
      "type": "function"
    },
    {
      "inputs": [
        {
          "internalType": "string",
          "name": "storeId",
          "type": "string"
        }
      ],
      "name": "getStoreForecasts",
      "outputs": [
        {
          "internalType": "uint256[]",
          "name": "",
          "type": "uint256[]"
        }
      ],
      "stateMutability": "view",
      "type": "function"
    },
    {
      "inputs": [
        {
          "internalType": "address",
          "name": "user",
          "type": "address"
        }
      ],
      "name": "getUserForecasts",
      "outputs": [
        {
          "internalType": "uint256[]",
          "name": "",
          "type": "uint256[]"
        }
      ],
      "stateMutability": "view",
      "type": "function"
    },
    {
      "inputs": [
        {
          "internalType": "uint256",
          "name": "forecastId",
          "type": "uint256"
        }
      ],
      "name": "isEligibleForReward",
      "outputs": [
        {
          "internalType": "bool",
          "name": "",
          "type": "bool"
        }
      ],
      "stateMutability": "view",
      "type": "function"
    },
    {
      "inputs": [],
      "name": "owner",
      "outputs": [
        {
          "internalType": "address",
          "name": "",
          "type": "address"
        }
      ],
      "stateMutability": "view",
      "type": "function"
    },
    {
      "inputs": [],
      "name": "pause",
      "outputs": [],
      "stateMutability": "nonpayable",
      "type": "function"
    },
    {
      "inputs": [],
      "name": "paused",
      "outputs": [
        {
          "internalType": "bool",
          "name": "",
          "type": "bool"
        }
      ],
      "stateMutability": "view",
      "type": "function"
    },
    {
      "inputs": [
        {
          "internalType": "string",
          "name": "storeId",
          "type": "string"
        },
        {
          "internalType": "string",
          "name": "name",
          "type": "string"
        },
        {
          "internalType": "string",
          "name": "location",
          "type": "string"
        },
        {
          "internalType": "address",
          "name": "storeOwner",
          "type": "address"
        }
      ],
      "name": "registerStore",
      "outputs": [],
      "stateMutability": "nonpayable",
      "type": "function"
    },
    {
      "inputs": [
        {
          "internalType": "address",
          "name": "provider",
          "type": "address"
        }
      ],
      "name": "removeDataProvider",
      "outputs": [],
      "stateMutability": "nonpayable",
      "type": "function"
    },
    {
      "inputs": [],
      "name": "renounceOwnership",
      "outputs": [],
      "stateMutability": "nonpayable",
      "type": "function"
    },
    {
      "inputs": [
        {
          "internalType": "string",
          "name": "",
          "type": "string"
        },
        {
          "internalType": "uint256",
          "name": "",
          "type": "uint256"
        }
      ],
      "name": "storeForecasts",
      "outputs": [
        {
          "internalType": "uint256",
          "name": "",
          "type": "uint256"
        }
      ],
      "stateMutability": "view",
      "type": "function"
    },
    {
      "inputs": [
        {
          "internalType": "string",
          "name": "",
          "type": "string"
        }
      ],
      "name": "stores",
      "outputs": [
        {
          "internalType": "string",
          "name": "name",
          "type": "string"
        },
        {
          "internalType": "string",
          "name": "location",
          "type": "string"
        },
        {
          "internalType": "address",
          "name": "owner",
          "type": "address"
        },
        {
          "internalType": "bool",
          "name": "isActive",
          "type": "bool"
        },
        {
          "internalType": "uint256",
          "name": "totalForecasts",
          "type": "uint256"
        },
        {
          "internalType": "uint256",
          "name": "averageAccuracy",
          "type": "uint256"
        }
      ],
      "stateMutability": "view",
      "type": "function"
    },
    {
      "inputs": [
        {
          "internalType": "uint256",
          "name": "forecastId",
          "type": "uint256"
        },
        {
          "internalType": "uint256[]",
          "name": "actualSales",
          "type": "uint256[]"
        }
      ],
      "name": "submitActualData",
      "outputs": [],
      "stateMutability": "nonpayable",
      "type": "function"
    },
    {
      "inputs": [
        {
          "internalType": "string",
          "name": "storeId",
          "type": "string"
        },
        {
          "internalType": "string",
          "name": "city",
          "type": "string"
        },
        {
          "internalType": "uint256",
          "name": "predictionPeriodStart",
          "type": "uint256"
        },
        {
          "internalType": "uint256",
          "name": "predictionPeriodEnd",
          "type": "uint256"
        },
        {
          "internalType": "string",
          "name": "dataHash",
          "type": "string"
        },
        {
          "internalType": "uint256[]",
          "name": "predictedSales",
          "type": "uint256[]"
        }
      ],
      "name": "submitForecast",
      "outputs": [
        {
          "internalType": "uint256",
          "name": "",
          "type": "uint256"
        }
      ],
      "stateMutability": "nonpayable",
      "type": "function"
    },
    {
      "inputs": [
        {
          "internalType": "address",
          "name": "newOwner",
          "type": "address"
        }
      ],
      "name": "transferOwnership",
      "outputs": [],
      "stateMutability": "nonpayable",
      "type": "function"
    },
    {
      "inputs": [],
      "name": "unpause",
      "outputs": [],
      "stateMutability": "nonpayable",
      "type": "function"
    },
    {
      "inputs": [
        {
          "internalType": "address",
          "name": "",
          "type": "address"
        },
        {
          "internalType": "uint256",
          "name": "",
          "type": "uint256"
        }
      ],
      "name": "userForecasts",
      "outputs": [
        {
          "internalType": "uint256",
          "name": "",
          "type": "uint256"
        }
      ],
      "stateMutability": "view",
      "type": "function"
    }
  ],
  "bytecode": "0x60806040523480156200001157600080fd5b5060405162002ab438038062002ab48339810160408190526200003491620000c7565b806001600160a01b0381166200006457604051631e4fbdf760e01b81526000600482015260240160405180910390fd5b6200006f8162000077565b5050620000f9565b600080546001600160a01b038381166001600160a01b0319831681178455604051919092169283917f8be0079c531659141344cd1fd0a4f28419497f9722a3daafe3b4186f6b6457e09190a35050565b600060208284031215620000da57600080fd5b81516001600160a01b0381168114620000f257600080fd5b9392505050565b6129ab80620001096000396000f3fe608060405234801561001057600080fd5b50600436106101a35760003560e01c80638ee67804116100ee578063dbd8951b11610097578063f5755c3411610071578063f5755c3414610377578063f9244dd7146103a2578063f979531f146103b5578063ffc31215146103c857600080fd5b8063dbd8951b14610316578063ed2312971461033f578063f2fde38b1461036457600080fd5b8063c65d885e116100c8578063c65d885e146102e7578063cbd5cf77146102fa578063d35ae9b21461030d57600080fd5b80638ee67804146102b8578063a68353fb146102cb578063b0eb1a5e146102d457600080fd5b80636423d501116101505780638456cb591161012a5780638456cb5914610282578063868fe4c41461028a5780638da5cb5b1461029d57600080fd5b80636423d50114610244578063715018a614610257578063780aac031461025f57600080fd5b806350910ad61161018157806350910ad6146101fe5780635bf08d23146102115780635c975abb1461023257600080fd5b80632e6c2d33146101a85780633f4ba83a146101d15780634a0b4ce4146101db575b600080fd5b6101bb6101b63660046121d2565b6103db565b6040516101c8919061224a565b60405180910390f35b6101d961044b565b005b6101ee6101e936600461225d565b61045d565b60405190151581526020016101c8565b6101d961020c366004612292565b61075c565b61022461021f3660046122ad565b6107b0565b6040519081526020016101c8565b600054600160a01b900460ff166101ee565b6101d9610252366004612357565b6107e1565b6101d9610b6e565b6101ee61026d366004612292565b60066020526000908152604090205460ff1681565b6101d9610b80565b6101d96102983660046121d2565b610b90565b6000546040516001600160a01b0390911681526020016101c8565b6101d96102c636600461239e565b610bd9565b61022460055481565b6101d96102e23660046121d2565b610de1565b6102246102f5366004612437565b610dfb565b6101bb610308366004612292565b61124e565b610224611f4081565b61032961032436600461225d565b6112b8565b6040516101c89a99989796959493929190612546565b61035261034d3660046121d2565b6114af565b6040516101c8969594939291906125ca565b6101d9610372366004612292565b61160e565b61038a61038536600461225d565b61164c565b6040516101c89c9b9a9998979695949392919061261e565b6101d96103b0366004612292565b6119dd565b6102246103c33660046126d7565b611a2e565b6103526103d63660046121d2565b611a59565b60606004826040516103ed919061271c565b908152604080519182900360209081018320805480830285018301909352828452919083018282801561043f57602002820191906000526020600020905b81548152602001906001019080831161042b575b50505050509050919050565b610453611c27565b61045b611c54565b565b60008181526001602081815260408084208151610180810190925280546001600160a01b031682529283018054859492938401919061049b90612738565b80601f01602080910402602001604051908101604052809291908181526020018280546104c790612738565b80156105145780601f106104e957610100808354040283529160200191610514565b820191906000526020600020905b8154815290600101906020018083116104f757829003601f168201915b5050505050815260200160028201805461052d90612738565b80601f016020809104026020016040519081016040528092919081815260200182805461055990612738565b80156105a65780601f1061057b576101008083540402835291602001916105a6565b820191906000526020600020905b81548152906001019060200180831161058957829003601f168201915b505050505081526020016003820154815260200160048201548152602001600582015481526020016006820180546105dd90612738565b80601f016020809104026020016040519081016040528092919081815260200182805461060990612738565b80156106565780601f1061062b57610100808354040283529160200191610656565b820191906000526020600020905b81548152906001019060200180831161063957829003601f168201915b50505050508152602001600782018054806020026020016040519081016040528092919081815260200182805480156106ae57602002820191906000526020600020905b81548152602001906001019080831161069a575b505050505081526020016008820180548060200260200160405190810160405280929190818152602001828054801561070657602002820191906000526020600020905b8154815260200190600101908083116106f2575b505050918352505060098201546020820152600a9091015460ff8082161515604084015261010090910416151560609091015261016081015190915080156107555750611f4081610120015110155b9392505050565b610764611c27565b6001600160a01b038116600081815260066020526040808220805460ff19166001179055517fc2c86837bccb53b419b86bf9073f8c38739d282cd7853f2766cbfd98c26b9a209190a250565b600360205281600052604060002081815481106107cc57600080fd5b90600052602060002001600091509150505481565b3360009081526006602052604090205460ff168061080957506000546001600160a01b031633145b6108665760405162461bcd60e51b8152602060048201526024808201527f4e6f7420617574686f72697a656420746f207375626d69742061637475616c206044820152636461746160e01b60648201526084015b60405180910390fd5b600082815260016020526040902080546001600160a01b03166108cb5760405162461bcd60e51b815260206004820152601760248201527f466f72656361737420646f6573206e6f74206578697374000000000000000000604482015260640161085d565b600a810154610100900460ff16156109255760405162461bcd60e51b815260206004820152601b60248201527f416363757261637920616c72656164792063616c63756c617465640000000000604482015260640161085d565b806005015442116109785760405162461bcd60e51b815260206004820152601b60248201527f50726564696374696f6e20706572696f64206e6f7420656e6465640000000000604482015260640161085d565b60078101548251146109cc5760405162461bcd60e51b815260206004820152601a60248201527f53616c65732064617461206c656e677468206d69736d61746368000000000000604482015260640161085d565b81516109e190600883019060208501906120bb565b50600a8101805460ff1916600117905560078101805460408051602080840282018101909252828152600093610a50939192909190830182828015610a4557602002820191906000526020600020905b815481526020019060010190808311610a31575b505050505084611ca9565b60098301819055600a8301805461ff001916610100179055600183018054919250610b0191610a7e90612738565b80601f0160208091040260200160405190810160405280929190818152602001828054610aaa90612738565b8015610af75780601f10610acc57610100808354040283529160200191610af7565b820191906000526020600020905b815481529060010190602001808311610ada57829003601f168201915b5050505050611e98565b604051339085907f8f0828e29b078031fc860679a31349cafe27ff689f81b098ba3c1871d4d8437690600090a3837f5ee1c4f929a89730eeea92d50d09848daa6daf1220a59c80b1060d4ec44df08b82604051610b6091815260200190565b60405180910390a250505050565b610b76611c27565b61045b6000611fc6565b610b88611c27565b61045b612023565b610b98611c27565b6000600282604051610baa919061271c565b9081526040519081900360200190206002018054911515600160a01b0260ff60a01b1990921691909117905550565b610be1611c27565b6000845111610c325760405162461bcd60e51b815260206004820152601860248201527f53746f72652049442063616e6e6f7420626520656d7074790000000000000000604482015260640161085d565b60006001600160a01b0316600285604051610c4d919061271c565b908152604051908190036020019020600201546001600160a01b031614610cb65760405162461bcd60e51b815260206004820152601860248201527f53746f726520616c726561647920726567697374657265640000000000000000604482015260640161085d565b6040518060c00160405280848152602001838152602001826001600160a01b03168152602001600115158152602001600081526020016000815250600285604051610d01919061271c565b90815260405190819003602001902081518190610d1e90826127c1565b5060208201516001820190610d3390826127c1565b5060408281015160028301805460608601511515600160a01b027fffffffffffffffffffffff0000000000000000000000000000000000000000009091166001600160a01b03909316929092179190911790556080830151600383015560a09092015160049091015551610da890859061271c565b60405180910390207f27f944dbf23305f3c2c09585a1d95ecf1bfb0da85f40844e8871202c58e481928483604051610b60929190612881565b610de9611c27565b6001600282604051610baa919061271c565b6000610e05612066565b6000875111610e565760405162461bcd60e51b815260206004820152601860248201527f53746f72652049442063616e6e6f7420626520656d7074790000000000000000604482015260640161085d565b600287604051610e66919061271c565b9081526040519081900360200190206002015460ff600160a01b90910416610ed05760405162461bcd60e51b815260206004820152601360248201527f53746f7265206973206e6f742061637469766500000000000000000000000000604482015260640161085d565b838510610f1f5760405162461bcd60e51b815260206004820152601960248201527f496e76616c69642070726564696374696f6e20706572696f6400000000000000604482015260640161085d565b6000825111610f705760405162461bcd60e51b815260206004820152601f60248201527f5072656469637465642073616c65732063616e6e6f7420626520656d70747900604482015260640161085d565b428511610fe55760405162461bcd60e51b815260206004820152602760248201527f50726564696374696f6e20706572696f64206d75737420626520696e2074686560448201527f2066757475726500000000000000000000000000000000000000000000000000606482015260840161085d565b60058054906000610ff5836128c2565b9091555050600554604080516101808101825233815260208082018b81528284018b9052426060840152608083018a905260a0830189905260c0830188905260e08301879052835160008082528184018652610100850191909152610120840181905261014084018190526101608401819052858152600192839052939093208251815473ffffffffffffffffffffffffffffffffffffffff19166001600160a01b039091161781559251919291908201906110b190826127c1565b50604082015160028201906110c690826127c1565b50606082015160038201556080820151600482015560a0820151600582015560c082015160068201906110f990826127c1565b5060e082015180516111159160078401916020909101906120bb565b5061010082015180516111329160088401916020909101906120bb565b506101208201516009820155610140820151600a90910180546101609093015115156101000261ff00199215159290921661ffff199093169290921717905533600090815260036020908152604080832080546001810182559084529190922001829055516004906111a5908a9061271c565b908152604051908190036020908101822080546001810182556000918252919020018290556002906111d8908a9061271c565b90815260405190819003602001902060030180549060006111f8836128c2565b9190505550336001600160a01b0316817fea0ec51cf43b0c95e925e847a244eb8354733b5e615c283e2ebb3c18055e7ade8a898960405161123b939291906128db565b60405180910390a3979650505050505050565b6001600160a01b03811660009081526003602090815260409182902080548351818402810184019094528084526060939283018282801561043f576020028201919060005260206000209081548152602001906001019080831161042b5750505050509050919050565b6001602081905260009182526040909120805491810180546001600160a01b03909316926112e590612738565b80601f016020809104026020016040519081016040528092919081815260200182805461131190612738565b801561135e5780601f106113335761010080835404028352916020019161135e565b820191906000526020600020905b81548152906001019060200180831161134157829003601f168201915b50505050509080600201805461137390612738565b80601f016020809104026020016040519081016040528092919081815260200182805461139f90612738565b80156113ec5780601f106113c1576101008083540402835291602001916113ec565b820191906000526020600020905b8154815290600101906020018083116113cf57829003601f168201915b50505050509080600301549080600401549080600501549080600601805461141390612738565b80601f016020809104026020016040519081016040528092919081815260200182805461143f90612738565b801561148c5780601f106114615761010080835404028352916020019161148c565b820191906000526020600020905b81548152906001019060200180831161146f57829003601f168201915b505050506009830154600a9093015491929160ff8082169250610100909104168a565b80516020818301810180516002825292820191909301209152805481906114d590612738565b80601f016020809104026020016040519081016040528092919081815260200182805461150190612738565b801561154e5780601f106115235761010080835404028352916020019161154e565b820191906000526020600020905b81548152906001019060200180831161153157829003601f168201915b50505050509080600101805461156390612738565b80601f016020809104026020016040519081016040528092919081815260200182805461158f90612738565b80156115dc5780601f106115b1576101008083540402835291602001916115dc565b820191906000526020600020905b8154815290600101906020018083116115bf57829003601f168201915b505050506002830154600384015460049094015492936001600160a01b03821693600160a01b90920460ff1692509086565b611616611c27565b6001600160a01b03811661164057604051631e4fbdf760e01b81526000600482015260240161085d565b61164981611fc6565b50565b600060608060008060006060806060600080600080600160008f8152602001908152602001600020604051806101800160405290816000820160009054906101000a90046001600160a01b03166001600160a01b03166001600160a01b031681526020016001820180546116bf90612738565b80601f01602080910402602001604051908101604052809291908181526020018280546116eb90612738565b80156117385780601f1061170d57610100808354040283529160200191611738565b820191906000526020600020905b81548152906001019060200180831161171b57829003601f168201915b5050505050815260200160028201805461175190612738565b80601f016020809104026020016040519081016040528092919081815260200182805461177d90612738565b80156117ca5780601f1061179f576101008083540402835291602001916117ca565b820191906000526020600020905b8154815290600101906020018083116117ad57829003601f168201915b5050505050815260200160038201548152602001600482015481526020016005820154815260200160068201805461180190612738565b80601f016020809104026020016040519081016040528092919081815260200182805461182d90612738565b801561187a5780601f1061184f5761010080835404028352916020019161187a565b820191906000526020600020905b81548152906001019060200180831161185d57829003601f168201915b50505050508152602001600782018054806020026020016040519081016040528092919081815260200182805480156118d257602002820191906000526020600020905b8154815260200190600101908083116118be575b505050505081526020016008820180548060200260200160405190810160405280929190818152602001828054801561192a57602002820191906000526020600020905b815481526020019060010190808311611916575b5050505050815260200160098201548152602001600a820160009054906101000a900460ff16151515158152602001600a820160019054906101000a900460ff1615151515815250509050806000015181602001518260400151836060015184608001518560a001518660c001518760e001518861010001518961012001518a61014001518b61016001519c509c509c509c509c509c509c509c509c509c509c509c505091939597999b5091939597999b565b6119e5611c27565b6001600160a01b038116600081815260066020526040808220805460ff19169055517f033dfbce3ad1803151dcc8f4ca7cf22c5745f11a6d3931072ce7a9c3016d5e6c9190a250565b815160208184018101805160048252928201918501919091209190528054829081106107cc57600080fd5b6060806000806000806000600288604051611a74919061271c565b90815260200160405180910390206040518060c0016040529081600082018054611a9d90612738565b80601f0160208091040260200160405190810160405280929190818152602001828054611ac990612738565b8015611b165780601f10611aeb57610100808354040283529160200191611b16565b820191906000526020600020905b815481529060010190602001808311611af957829003601f168201915b50505050508152602001600182018054611b2f90612738565b80601f0160208091040260200160405190810160405280929190818152602001828054611b5b90612738565b8015611ba85780601f10611b7d57610100808354040283529160200191611ba8565b820191906000526020600020905b815481529060010190602001808311611b8b57829003601f168201915b505050918352505060028201546001600160a01b038116602080840191909152600160a01b90910460ff161515604080840191909152600384015460608085019190915260049094015460809384015284519185015190850151938501519285015160a090950151919d909c50929a5090985091965090945092505050565b6000546001600160a01b0316331461045b5760405163118cdaa760e01b815233600482015260240161085d565b611c5c612091565b6000805460ff60a01b191690557f5db9ee0a495bf2e6ff9c91a7834c1ba4fdd244a5e8aa4e537bd38aeae4b073aa335b6040516001600160a01b03909116815260200160405180910390a1565b60008151835114611cfc5760405162461bcd60e51b815260206004820152601560248201527f4172726179206c656e677468206d69736d617463680000000000000000000000604482015260640161085d565b60008060005b8551811015611e4a576000858281518110611d1f57611d1f612900565b60200260200101511115611e38576000868281518110611d4157611d41612900565b6020026020010151868381518110611d5b57611d5b612900565b602002602001015111611dab57858281518110611d7a57611d7a612900565b6020026020010151878381518110611d9457611d94612900565b6020026020010151611da69190612916565b611de9565b868281518110611dbd57611dbd612900565b6020026020010151868381518110611dd757611dd7612900565b6020026020010151611de99190612916565b9050858281518110611dfd57611dfd612900565b602002602001015181612710611e139190612929565b611e1d9190612940565b611e279085612962565b935082611e33816128c2565b935050505b80611e42816128c2565b915050611d02565b5080600003611e5e57600092505050611e92565b6000611e6a8284612940565b905060006127108211611e8857611e8382612710612916565b611e8b565b60005b9450505050505b92915050565b6000600482604051611eaa919061271c565b9081526040805191829003602090810183208054808302850183019093528284529190830182828015611efc57602002820191906000526020600020905b815481526020019060010190808311611ee8575b5050505050905060008060005b8351811015611f8b57600060016000868481518110611f2a57611f2a612900565b60200260200101518152602001908152602001600020905080600a0160019054906101000a900460ff1615611f78576009810154611f689085612962565b935082611f74816128c2565b9350505b5080611f83816128c2565b915050611f09565b508015611fc057611f9c8183612940565b600285604051611fac919061271c565b908152604051908190036020019020600401555b50505050565b600080546001600160a01b0383811673ffffffffffffffffffffffffffffffffffffffff19831681178455604051919092169283917f8be0079c531659141344cd1fd0a4f28419497f9722a3daafe3b4186f6b6457e09190a35050565b61202b612066565b6000805460ff60a01b1916600160a01b1790557f62e78cea01bee320cd4e420270b5ea74000d11b0c9f74754ebdbfc544b05a258611c8c3390565b600054600160a01b900460ff161561045b5760405163d93c066560e01b815260040160405180910390fd5b600054600160a01b900460ff1661045b57604051638dfc202b60e01b815260040160405180910390fd5b8280548282559060005260206000209081019282156120f6579160200282015b828111156120f65782518255916020019190600101906120db565b50612102929150612106565b5090565b5b808211156121025760008155600101612107565b634e487b7160e01b600052604160045260246000fd5b604051601f8201601f1916810167ffffffffffffffff8111828210171561215a5761215a61211b565b604052919050565b600082601f83011261217357600080fd5b813567ffffffffffffffff81111561218d5761218d61211b565b6121a0601f8201601f1916602001612131565b8181528460208386010111156121b557600080fd5b816020850160208301376000918101602001919091529392505050565b6000602082840312156121e457600080fd5b813567ffffffffffffffff8111156121fb57600080fd5b61220784828501612162565b949350505050565b600081518084526020808501945080840160005b8381101561223f57815187529582019590820190600101612223565b509495945050505050565b602081526000610755602083018461220f565b60006020828403121561226f57600080fd5b5035919050565b80356001600160a01b038116811461228d57600080fd5b919050565b6000602082840312156122a457600080fd5b61075582612276565b600080604083850312156122c057600080fd5b6122c983612276565b946020939093013593505050565b600082601f8301126122e857600080fd5b8135602067ffffffffffffffff8211156123045761230461211b565b8160051b612313828201612131565b928352848101820192828101908785111561232d57600080fd5b83870192505b8483101561234c57823582529183019190830190612333565b979650505050505050565b6000806040838503121561236a57600080fd5b82359150602083013567ffffffffffffffff81111561238857600080fd5b612394858286016122d7565b9150509250929050565b600080600080608085870312156123b457600080fd5b843567ffffffffffffffff808211156123cc57600080fd5b6123d888838901612162565b955060208701359150808211156123ee57600080fd5b6123fa88838901612162565b9450604087013591508082111561241057600080fd5b5061241d87828801612162565b92505061242c60608601612276565b905092959194509250565b60008060008060008060c0878903121561245057600080fd5b863567ffffffffffffffff8082111561246857600080fd5b6124748a838b01612162565b9750602089013591508082111561248a57600080fd5b6124968a838b01612162565b9650604089013595506060890135945060808901359150808211156124ba57600080fd5b6124c68a838b01612162565b935060a08901359150808211156124dc57600080fd5b506124e989828a016122d7565b9150509295509295509295565b60005b838110156125115781810151838201526020016124f9565b50506000910152565b600081518084526125328160208601602086016124f6565b601f01601f19169290920160200192915050565b60006101406001600160a01b038d1683528060208401526125698184018d61251a565b9050828103604084015261257d818c61251a565b90508960608401528860808401528760a084015282810360c08401526125a3818861251a565b60e08401969096525050911515610100830152151561012090910152979650505050505050565b60c0815260006125dd60c083018961251a565b82810360208401526125ef818961251a565b6001600160a01b0397909716604084015250509215156060840152608083019190915260a09091015292915050565b60006101806001600160a01b038f1683528060208401526126418184018f61251a565b90508281036040840152612655818e61251a565b90508b60608401528a60808401528960a084015282810360c084015261267b818a61251a565b905082810360e084015261268f818961220f565b90508281036101008401526126a4818861220f565b915050846101208301526126bd61014083018515159052565b8215156101608301529d9c50505050505050505050505050565b600080604083850312156126ea57600080fd5b823567ffffffffffffffff81111561270157600080fd5b61270d85828601612162565b95602094909401359450505050565b6000825161272e8184602087016124f6565b9190910192915050565b600181811c9082168061274c57607f821691505b60208210810361276c57634e487b7160e01b600052602260045260246000fd5b50919050565b601f8211156127bc57600081815260208120601f850160051c810160208610156127995750805b601f850160051c820191505b818110156127b8578281556001016127a5565b5050505b505050565b815167ffffffffffffffff8111156127db576127db61211b565b6127ef816127e98454612738565b84612772565b602080601f831160018114612824576000841561280c5750858301515b600019600386901b1c1916600185901b1785556127b8565b600085815260208120601f198616915b8281101561285357888601518255948401946001909101908401612834565b50858210156128715787850151600019600388901b60f8161c191681555b5050505050600190811b01905550565b604081526000612894604083018561251a565b90506001600160a01b03831660208301529392505050565b634e487b7160e01b600052601160045260246000fd5b6000600182016128d4576128d46128ac565b5060010190565b6060815260006128ee606083018661251a565b60208301949094525060400152919050565b634e487b7160e01b600052603260045260246000fd5b81810381811115611e9257611e926128ac565b8082028115828204841417611e9257611e926128ac565b60008261295d57634e487b7160e01b600052601260045260246000fd5b500490565b80820180821115611e9257611e926128ac56fea26469706673582212203844a4a9c604ae7d79934fe83b7766e5016735019ad9c8710a3dd4bcef61e84164736f6c63430008140033",
  "linkReferences": {},
  "deployedLinkReferences": {}
}